:100000006F10804613000000130000001300000072
:100010001300000013000000130000001300000094
:100020001300000013000000130000001300000084
:08003000130000007300100032
:100038000000000000000000E8010000EC010000E2
:100048000000000000140000000000000000000094
:10005800021400000414000000000000000000006A
:100068000614000000000000081400000000000052
:100078000A1400000C1400000E14000010140000F4
:1000880012140000141400001614000018140000C4
:100098001A1400001C1400001E1400002014000094
:1000A8002214000024140000261400002814000064
:1000B8002A1400002C1400002E1400003014000034
:1000C800601A0000341400003614000038140000D0
:1000D8003A1400003C1400003E14000040140000D4
:1000E80042140000441400004614000048140000A4
:1000F8004A1400004C1400004E1400005014000074
:100108005214000054140000561400005814000043
:100118005A1400005C140000561A00006014000015
:10012800621400006414000066140000000000005F
:080138000000000000000000BF
:100140003D432A876373C3029377F700BDEFADE5A4
:10015000937606FF3D8ABA960CC34CC30CC74CC7B6
:100160004107E36BD7FE11E28280B306C3408A06E3
:100170009702000096966780A6002307B700A306A3
:10018000B7002306B700A305B7002305B700A304F3
:10019000B7002304B700A303B7002303B700A302EB
:1001A000B7002302B700A301B7002301B700A300E3
:1001B000B7002300B700828093F5F50F9396850072
:1001C000D58D93960501D58D61B79396270097023B
:1001D000000096968682E78086FA9680C1171D8F6A
:1001E0003E96E374C3F8A5B77300203001A0011157
:1001F000094506CE22CC26CA4AC84EC652C4EF10C4
:100200008043EF10C072716513050520EF10207850
:10021000B707002083A507123735000013050557DF
:10022000EF20C0123735000013050558EF20A0233A
:10023000EF107003EF00D02C81450145EF10900CBA
:100240001305C02BEF10407185450545EF10900B4D
:100250000144EF10B006954937390000373A0000E5
:1002600083A70185E30EF4FE03A4018513054A5913
:100270001374F40F630434011305495AEF20A01ED0
:10028000C5B7B71702409843B706FFF813671700C2
:1002900098C3D843758FD8C39843B706F7FEFD16A9
:1002A000758F98C39843B706FCFFFD16758F98C3EA
:1002B000D843B70681FFFD16758FD8C337079F0057
:1002C00098C7D843719BD8C3D843318B75FFB746C5
:1002D000024003A706801367070123A0E680D843E6
:1002E000B706C1FFFD16D8C3D843D8C3D843136798
:1002F0000740D8C3D843758FD8C3D843B7063C004E
:10030000558FD8C39843B7060001558F98C3B717C8
:100310000240984393166700E3DD06FED843B71604
:10032000024013672700D8C32147DC42B18BE39E0C
:10033000E7FE8280411122C406C611E983A7018924
:1003400005472398E700B24022444101828083A7F9
:10035000C1889C43829703A501892905EDB7411106
:1003600022C406C611E983A7018905472398E7003F
:10037000B24022444101828083A7C1889C47829772
:1003800003A501893105EDB703A7018909E589476F
:100390002318F7008280411122C406C623900186EB
:1003A000834707002A8493F7F70795EF03479700E1
:1003B0009377070281C789472380F1861377070463
:1003C00083C7018619CF93E717002380F18683A79F
:1003D000C1889C4B829713850186B240224441011B
:1003E0008280F99BDDB7854613850186E387D7FEBA
:1003F00089460145E393D7FE03475700B76600409F
:10040000938606C09377F7008A07B69762079C43E6
:1004100061876359070093F707034147E399E7FAB8
:10042000854765B70D67F98F0567CDBF011126CAEE
:1004300083A4018922CC4EC603D4040152C406CE43
:100440004AC856C23E8A35E003C784009147631EFE
:10045000F70413870183144385476393F604B76752
:10046000004083A707C5B73600208906C207C183AD
:10047000B697860723A0070093070003239CF18803
:1004800023200700114983A7018923842701F24013
:100490006244D2444249B249224A924A056182806A
:1004A000C147239CF1881D49F9BF83D744011149F5
:1004B00063F38700094963F387003E849C4C420440
:1004C000418022858297AA8A0145EF00F06022864A
:1004D000AA855685EF00103AA2850145EF00B0636A
:1004E00083D704010D67818F2398F40083D72401FB
:1004F0003E9493070003239CF18823998400239B57
:10050000E18851B783A7018983C6D18103C737002A
:10051000094563E4E60283C6270085E283D64700E7
:1005200089EE411106C62385E70083A7C188DC4315
:100530008297B2400145410182808280011122CC24
:1005400083A7018903A7818606CE83C53700184F8C
:1005500003C55700029783A7018903C7A70005CFEA
:100560002AC615E903C747001DE783C7270085E7AB
:1005700083A7C188DC47829783A70189324503C7D7
:100580005700A385E70003C737002386E700F24042
:100590006244056182800945DDBF83A7018983C666
:1005A000070093F6F60791EA03C797001377F7FD64
:1005B000A384E70001473A85828009460947E39C06
:1005C000C6FE83D62700E5FA83C64700EDF603C6CC
:1005D00057004111376700401375F6F722C413071F
:1005E00007C0131425003A946206144006C626C2BA
:1005F0006186635A060493F6060383C5C1810947E1
:10060000637DB5029DCA83C7A70085CB1C40635F8D
:10061000060293F707034147639CE7001374F50F45
:100620002285EF005044930500032285EF00F02B54
:1006300083A7C188DC4B82970147B2402244924491
:100640003A85410182800D67F98E45BFC164FD1472
:100650000D67E58FF98F0567E39CE7FC1DEDB70794
:10066000002083C54707EF00F04C1C40717713074B
:10067000F7F8F98FC2070D67C183B98F6177130748
:100680000708D98FC207C1831CC08D661840658FCB
:10069000758FE30FD7F81CC0D5BFEF0090391C4011
:1006A00071771307F7F8F98FC2070D67C183B98F08
:1006B000617713070708D98FC207C1831CC08D66F5
:1006C0001840658F758FE305D7F61CC0D5BF03A60C
:1006D0000189B7670040938707C08346560093F5AA
:1006E000F6F713972500BA97E2069843E18663D29E
:1006F00006061377070303C8C181094563FA050994
:1007000083552600D1E549C70347A60051C34111CF
:10071000984306C663D40604E5769386F6FB758F88
:1007200042074183E1761347070193860608558FF8
:100730004207418398C34146944393F60603639D61
:10074000C60083A7C1889C4F8297B24001454101F2
:1007500082800D65698F45B798C3F9BFF17693869E
:10076000F6F8758F420785664183358FE17693866B
:100770000608558F42074183416698C37D160D6573
:1007800085659443F18EE98EE38DB6FA98C3D5BFA3
:10079000828003A70189411106C68347970093E72A
:1007A0000702A304F70083A7C188DC4F8297B240F9
:1007B00001454101828003A701898357270101E98F
:1007C00003D545001D8D2318A7000145828088416F
:1007D0003E958280B707002083C547074111014538
:1007E00006C6EF00303583A7018903C58700A147FE
:1007F0006318F5000567239BE1884147239CE18846
:10080000B2405D151335150041018280011126CAE1
:100810004AC803A9018906CE22CC37660040834628
:100820008900832706C52547638BE60441641307C7
:10083000F4FFB7360020F98F9106B69786078043FC
:10084000798C06043294834704002300F90083471F
:100850001400A300F90003554400EF0050342311A5
:10086000A9000355840003A90189EF005033231226
:10087000A9000357C40083A701892393E70083A736
:10088000018905472384E70003D7670003C41700E5
:100890006316070E03C707001377F70755EF2547C1
:1008A0006315E400853125E925A81547631DE40497
:1008B00003873700635D0700A14703A7018923046D
:1008C000F7006244F240D2444249056121B703C7B0
:1008D00027007DF303D7470065F383C7A700E9FF2F
:1008E000B767004083A707C5373700200907C2074D
:1008F000C183BA97860723A0070013070003239C30
:10090000E18899475DBF0D476317E40283C637004E
:100910000547638DE60083A781862285DC4B82979D
:100920000D47A547E30BE5F845DD79B783D74700C9
:10093000FDF385358DBF0547E31FE4FC03C7370092
:10094000E31B87FC03D7470079F783C7970093F72A
:100950000702F1D3993181BF85476317F700AD478F
:10096000E31BF4FAE13E81B78946E316D7FAE303C5
:10097000F4FE8D47E311F4FA993B35B71947631B31
:10098000E40203C707001377F7077DE383C7270057
:10099000854603A781866395D7005C4FF1CBA1A064
:1009A00089466394D7001C53D5BF8D466392D70CFC
:1009B0005C53EDB775E003D727005DEBD843C176F4
:1009C0009386F60F758FB70602006313D70A03C725
:1009D00007001377F7071DEF83D74700D1EBB70761
:1009E00000009387873803A7018901452319070071
:1009F0001CCF8297014583A70189C166FD1603D7E5
:100A000007016304D70889466304D5006318070EFD
:100A10002147ADA885466310D70203A7818603C589
:100A200057008145184F029721E583A7018983C7A5
:100A3000A700D5F735A88946631CD70203C757001E
:100A4000B7660040938606C01376F700931726001A
:100A5000B6979C4393168701E18663DC060293F701
:100A6000070383C6C1816375D6001377070771D367
:100A700003A7018983A78186034517009C4B8297B2
:100A80008D47E31AF5F683A7018925472384E700FC
:100A90000DBD8D66F58FF1B72147631CE40083C758
:100AA000070093F7F707E9F7B70700009387473385
:100AB0001DBF2947E31EE4FA03C7070085461377E5
:100AC000F707E317D7FA03C7A7005DD303D72700BB
:100AD00045F3D843C1769386F60F758FC166E31947
:100AE000D7F803A7818603C557008145184F0297A1
:100AF00041F1B70700009387E735F5B58386070016
:100B000063D4060483A6818683D5670003C6C60224
:100B10002EC6324593160601C1826379E50032473D
:100B20002398E700239AD700113261BBE37CB7FE1C
:100B30006375D70023A80182F5B73367C7027DF339
:100B4000054623A8C182F9BF0D472384E7000D673E
:100B5000239BE188BDB301114AC822CC03A40189BB
:100B600026CA06CE4EC683478400A1441387E7FFFA
:100B70001377D70F3DCF1387D7FF1377D70F4DEFDD
:100B80001C4C95CF83540401A1C8035744016373DF
:100B90009700BA84C204C1802685829783570401D6
:100BA000AA890145858F2318F40083572401A6974D
:100BB0002319F4008927AA8526864E85C5218357E7
:100BC000040199CB0D6781450145239BE188A1274D
:100BD00013070003239CE1888357040183564401D3
:100BE00003A7018963E2D7028D472304F7008344FA
:100BF000870083A70189238497006244F240D2448E
:100C00004249B2490561F9B699C39547F9BF994779
:100C10002304F700B767004083A707C5B736002055
:100C20008906C207C183B697860723A007009306EB
:100C30000003239CD18865BF1D47A144E39BE7FACD
:100C400083A78186DC4782976DB703C3C18137666E
:100C50000040C1650568A1680147130606C0FD157F
:100C60001308F8F09388080863696700136505089E
:100C7000B767004023A6A7C4828093162700B296C8
:100C80009C42ED8FB3F70701D98FB3E717019CC2E0
:100C90000507D9BF411122C483A7018906C683C6AF
:100CA00087001387E6FF1377D70F19EFEFF00FF8E0
:100CB00083A7018903C7870083A701892384E700ED
:100CC0002244B240410139B619462147E396C6FE97
:100CD00083C617001547639EE60003C70700137716
:100CE000F70701EB03C537008D3783A7C1889C53F5
:100CF000829783A781869C478297214775BF828010
:100D00009387018723A8F18809472384E7003707E1
:100D100000209306870423A4D18603238704B70702
:100D200000209387870923A6F188028379714ECE2C
:100D300052CCB7090020370A002022D426D206D68A
:100D40004AD056CA2317010093890901130ACA021F
:100D5000B766004083A746C4139607014182239ECD
:100D6000C190139607016356061283D7C191328949
:100D7000BD8B2386F186138606C06399072883A757
:100D800006C00D66C165C207C183239BF18883D766
:100D90006189FD150D6893F70703239CF18883D7BC
:100DA0006189896813050002F18F239BF18883A76D
:100DB00006C031661306F6FBF18F096613060602BC
:100DC000B18F617613060608D18FC207C18323A0B5
:100DD000F6C037660040832606C0130906C0ED8EB4
:100DE000B3F606016390160D832606C093F606033C
:100DF000639AA60A83D7C191C18BDDEB83270900D3
:100E000025671307F7F0F98F2320F9006135832751
:100E1000090031671307F7FBF98F03D76189931630
:100E2000370163D406000567B98F03D7618993162C
:100E3000270163D406000967B98F03D78189418BE5
:100E400019C393C7070103D781891377070219C311
:100E500093C70702617713070708D98FC207C183B9
:100E60003767004041662320F7C0B76600407D1613
:100E70000D6503A706C083D56189718F698F6316DD
:100E8000B70203A706C083D5818913770703631EC2
:100E9000B700B250225492540259F249624AD24ADF
:100EA000456182802320F6C03DB723A0F6C0D1B7AC
:100EB00083270900856AC207C1832317F10083577E
:100EC000E100139747016350070A8327090013873E
:100ED000FAF8F98F2320F900EFF05F9383270900D8
:100EE00031671307F7FBF98F03D761899316370131
:100EF00063D40600B3C7570103D76189931627014E
:100F000063D406000967B98F03D78189418B19C360
:100F100093C7070103D781891377070219C393C7C2
:100F20000702617713070708D98FC207C1833767A4
:100F3000004041662320F7C0B76600407D160D656E
:100F400003A706C083D56189718F698F631AB700C3
:100F500003A706C083D5818913770703E30BB7F294
:100F600023A0F6C0F1BF8357E100C207C187E3D1D8
:100F700007DE832709001387FAF8F98F2320F90089
:100F8000D93E8327090031671307F7FBF98F03D791
:100F900061899316370163D40600B3C7570103D79D
:100FA00061899316270163D406000967B98F03D7B7
:100FB0008189418B19C393C7070103D781891377AF
:100FC000070219C393C70702617713070708D98F70
:100FD000C207C1833767004041662320F7C0B76668
:100FE00000407D160D6503A706C083D56189718F0A
:100FF000698F631AB70003A706C083D58189137769
:101000000703E308B7E823A0F6C0F1BF1397270052
:1010100032971443C206C1822317D1008356E100E0
:10102000C206C18663DD0600FD1714438A07056604
:10103000D2971306F6F89C43F18E14C38297835718
:10104000E10093F70708E38507D083C7C186B76639
:101050000040938606C0139727003697FD17144368
:101060008A07CE9725661306F6F09C43F18E14C3CB
:101070008297F9B9B73700200506BE950586860523
:1010800011E2828083471500034705009105A207FE
:10109000D98F239EF5FE09057D16DDB7B7370020F1
:1010A0000506BE950586860511E282809C410905EC
:1010B0007D16231FF5FE9105C5BF6199420541814B
:1010C000B767004023A8A7C48280B7670040938712
:1010D00007C00A053E951C4165771307F798F98FFD
:1010E000DD8DC205C1810CC18280B7670040938746
:1010F00007C00A053E951C4165771307F7FBF98F7A
:10110000C20713F70501C18319C393C7070113F77A
:10111000050219C393C70702617713070708D98F20
:10112000C207C1831CC1184113770703E31CB7FE34
:101130008280B7670040938707C00A053E951C412F
:1011400071771307F7F8F98FC20713973501C18339
:10115000635407000567B98F13972501635407008F
:101160000967B98F617713070708D98FC207C18351
:10117000C1661CC1FD160D661841758F718F631312
:10118000B70082801CC1CDBFB7670040938707C0FE
:101190000A053E951C4165771307F7FBF98FC207D7
:1011A000C183617793C7070313070708D98FC20765
:1011B000C1831CC19306000318411377070363130F
:1011C000D70082801CC1CDBFB7670040938707C09E
:1011D0000A053E951C4171771307F7F8F98FC2078E
:1011E0000D67C183B98F617713070708D98FC207CD
:1011F000C183C1661CC1FD160D661841758F718FC4
:101200006313C70082801CC1CDBFB76700409387BE
:1012100007C00A053E951C4105671307F7E0F98FE3
:10122000617713070708D98FC207C1831CC1828069
:10123000E9BFB7670040938707C00A053E95144190
:10124000C1671387F7FF9397160163DD07001C4101
:10125000F98F05671307F7F0F98F31671307070850
:10126000D98F1CC18280B7670040938707C00A05E9
:101270003E951C4193F7070491CF1C4141677D17B0
:10128000F98F05671307F7F0F98F21671307070C2C
:10129000D98F1CC18280B767004083A707C50E05A0
:1012A0008581C207C1833E95B73700203E9506056C
:1012B00086050CC18280B767004083A707C50E056D
:1012C0008581C207C1833E95B737002091073E95BF
:1012D000060586050CC18280B767004083A707C555
:1012E0000E05C207C1833E95B73700203E9506051F
:1012F000035505008280B767004083A707C50E0528
:10130000C207C1833E95B737002091073E95060579
:10131000035505008280B767004083A707C50E0507
:10132000C207C1833E95B737002089073E95060561
:101330000CC18280B767004083A707C50E05C207AE
:10134000C1833E95B737002099073E959307E00388
:10135000060563FEB70093D75500FD8981E5FD17AB
:10136000C207C183AA072167D98F1CC1828093D786
:101370001500858991C18507AA07C5BFB7670040D9
:1013800083A707C50E05C207C1833E95B737002066
:1013900099073E95060508411375F53F82809357DE
:1013A00085001375F50F22055D8D8280376700403B
:1013B000F177232207C4938707F0239AF188B16756
:1013C000938707F02320F7C401458280411126C28C
:1013D0009374F507268506C622C44AC02E89793F34
:1013E0002A842685093F2286AA854A854539228591
:1013F000B2402244924402494101828001A001A0EE
:1014000001A001A001A001A001A001A001A001A0D4
:1014100001A001A001A001A001A001A001A001A0C4
:1014200001A001A001A001A001A001A001A001A0B4
:1014300001A001A001A001A001A001A001A001A0A4
:1014400001A001A001A001A001A001A001A001A094
:1014500001A001A001A001A001A001A001A001A084
:1014600001A001A001A001A097F1FF1F9381814B72
:101470001711002013010139172500001305452E0F
:1014800097F5FF1F938505B81386018363FAC5009E
:101490008322050023A0550011059105E3EAC5FE4E
:1014A000138501839385C1946377B50023200500DC
:1014B0001105E36DB5FEFD42739002BC8D42739041
:1014C00042809302800873A0023097F2FFFF93825C
:1014D000E2B693E2320073905230EFE09FDA97F277
:1014E000FFFF938202D17390123473002030584171
:1014F000032805004C4537060140930706403E97F8
:101500009346F8FFB1C583250640F58D2320B640EC
:10151000D043F18ED4C31443B3E6060114C318417B
:1015200090479346F7FF758E90C7D047F18ED4C78A
:10153000144541466399C6009447D98E94C7D44751
:10154000558FD8C78280B6979443558F98C38280B1
:101550001C43F58F1CC38280B707014023AAA74014
:1015600082809C4513F7070113F8F70001C7D841A3
:101570003368E800371701406317E50003D705001B
:1015800035832390E50083D5050013F7F50F39C3A4
:1015900018418146854E3D4F930F8002930280048F
:1015A000214E3396DE00B3F8C500631116039398FD
:1015B000260033131F011343F3FF3377E300B318FF
:1015C000180133E7E800639FF70550C98506E39AE1
:1015D000C6FD18C11307F00F6375B70454412146C7
:1015E000854E3D4F930F800293028004414EB39885
:1015F000CE0033F715016392E80213172600011796
:101600003313EF001343F3FFB376D3003317E8002F
:10161000D98E639DF701232A15010506E319C6FD3E
:1016200054C18280E39457FA10C94DB7E39757FE2F
:1016300023281501DDB723AAA182828093874183E5
:1016400094430347050089E683472500920731A8A4
:10165000944305466391C60483472500034615005D
:1016600092076314D60093E707F8B7E600E093F714
:10167000F70FBA962380F640854693575700339765
:10168000E6005441ADC6938707048A07B7E600E039
:10169000B69798C382808C4389466393D50283466C
:1016A0001500834725006365D6008A06B69779BF83
:1016B0009386E6038A06B69793F7F70F920765B706
:1016C00090438D46631ED600834615008347250050
:1016D0006364D6008606D9BF9386C6078606E1BF37
:1016E00094439147E39AF6F88347150085B79387AB
:1016F000070661BFB7170240D843B70640FFFD1683
:10170000758FD8C3D8435A05598DC8C382803717FF
:1017100002405C439146B18B6389D706A146638B37
:10172000D706B7177A00938707201CC137160240E7
:101730005C4237070020130707009183BD8BBA97DF
:1017400083C607001C41B3D7D7005CC15442A182B5
:101750009D8ABA9683C60600B3D6D70014C55442F4
:10176000AD829D8A369703470700B3D7E7005CC573
:101770005842398393763700138741803697034761
:101780000700B3D7E7021CC98280B727F40093870C
:10179000074061BF5C435843C166C983BD8B758FE9
:1017A0008907C5466393D700C9471DE33747024001
:1017B00003270780418B11C737177A0013070720CB
:1017C00029A037173D0013070790B387E702B1BF81
:1017D0003717024058439316E700E3CF06FC37273C
:1017E000F40013070740D5B799C5371702401C4FBF
:1017F0005D8D08CF8280B7170240984F1345F5FFE3
:10180000798D88CF828099C5371702405C4F5D8DF6
:1018100048CF8280B7170240D84F1345F5FF798D26
:10182000C8CF828083560501F577FD17F58F83D6E3
:101830006500397122DC06DED58F03D7C500231879
:10184000F5008356C500FD779387379FF58F83D6C4
:1018500045002A842EC6D58F83D68500D58F83D6A2
:10186000A500D58F2316F50083574501C207C18314
:1018700093F7F7CFD98F231AF5006808493DB7478A
:10188000014093870780B245631EF404A257835634
:10189000C4006547B387E702C206C186984163D595
:1018A000060406070356C4004206B3D7E70213072F
:1018B00040064186B3D6E702B3F7E70292066357C4
:1018C00006028E0793872703B3D7E70213F7770043
:1018D000B367D700C207C1832314F400F2506254E7
:1018E00021618280925765B70A076DBF920793877F
:1018F0002703B3D7E702BD8BD58FE9BF81C98357D3
:10190000C5000967D98F2316F50082800357C500EB
:10191000F977FD17F98FC5BF93F5F51F2312B500B1
:101920008280035505006D8D3335A0008280B70796
:10193000002083A7071237177A0013070720B3D7B1
:10194000E70293F7F70F238DF1821307803EB387E9
:10195000E702239CF1828280B7F700E0D8438146FA
:10196000799BD8C303D781833306A70290CBD4CB0E
:1019700098431367070198C398431367170298C3E6
:10198000D843058B75DF9843799B98C38280797122
:1019900022D42A8411658545110506D6B1359307F1
:1019A00000202312F100371501408D473EC44C0042
:1019B000E147130505803EC66D3622C83744014015
:1019C000B70708000C08130504803ECC02CA231E8A
:1019D0000100893D1305048085450D37B25022541E
:1019E00045618280011126CAB744014022CC4AC811
:1019F0004EC606CEAE893289014493840480634A80
:101A00002401F24062444A85D2444249B249056108
:101A10008280930500042685293765DDB387890018
:101A20008385070026850504C205C181F535C1BF40
:101A3000138781801C439386C1943E95636BD500C8
:101A4000B72600209386060063E5A60008C33E85FE
:101A50008280FD57EDBF37050400FD3C7300203048
:101A6000BD24730020304111094506C66131B240E2
:101A7000854537058000410179B3373500004111B4
:101A80001305855B06C6EF00101EB2400D4723A864
:101A9000E184410182803735000041111305455D25
:101AA00006C6EF00501C03C7A18719C71547B240EF
:101AB00023A8E184410182800547D5BF79713705AC
:101AC000040006D622D4493CB70704003EC80544AA
:101AD000C14708083ECC22CE02CAEFF05FA19307AF
:101AE000401228002314F10022C623050100B93654
:101AF0009307A00328002314F1008936B250225422
:101B000045618280411122C426C22E84AA84854563
:101B1000114506C6D139ADC0B766004083A706C4DB
:101B200041677517F98F23A0F6C4B717014003A7C3
:101B30004780B716F0FFFD16758F23A2E78003A735
:101B4000C780F9769386F67F758F23A6E78003A773
:101B50004780B7460400558F23A2E78037470240ED
:101B60008327078039C893E72700B2402244232007
:101B7000F78092444101828037670040832707C481
:101B8000B716F0FFFD1693E72700C207C183232095
:101B9000F7C4B717014003A74780758F23A2E780DA
:101BA00003A7C780F9769386F67F758F23A6E78013
:101BB00003A74780B736030079BFF59B7DB7411176
:101BC00022C413840184035604009305000C13857A
:101BD000C18906C6EFF00FCA835504000545EFF032
:101BE0008FF32244B240054541016FF0EFD9411116
:101BF00022C49385C189054506C6EFF02FFD420535
:101C000041812390A1841384C189814763E9A7009E
:101C10007D372244B240054541016FF0EFDAB386CB
:101C2000870003C70600850793F7F70F1347F7FFF1
:101C30002380E600E1BF411122C4138421840356AE
:101C40000400930500141385C18D06C6EFF08FC202
:101C5000835504000945EFF00FEC2244B2400945DA
:101C600041016FF06FD2411122C49385C18D0945A6
:101C700006C6EFF0AFF5420541812391A18413849C
:101C8000C18D814763E9A7007D372244B2400945F1
:101C900041016FF06FD3B386870003C70600850745
:101CA00093F7F70F1347F7FF2380E600E1BF83A602
:101CB00001859547639CF6009387C183984363052C
:101CC000D700050798C3828023A00700828037676A
:101CD0000040832747C4797122D4C207C18326D22A
:101CE000239EF19083D7C19183D6418906D6F58F83
:101CF00093F7072085C3C1679387F7DF2322F7C4D3
:101D00001387418483470700850793F7F70F230064
:101D1000F700713F83D7C19103D74189F98FC2077B
:101D2000C18763D40700EFF06F8083D7C19103D7D9
:101D30004189F98F93F7074089CFC1679387F7BF30
:101D4000376700402322F7C4B707002083A7C704E2
:101D5000829703D7C19183D741897D8F931627013D
:101D600063D806003967B76600407D1723A2E6C432
:101D700003D7C191F98F13973701635A0700BD67E5
:101D800037670040FD172322F7C40145F12903D727
:101D9000418983D7C191F98F13974701635E07008B
:101DA00083A7018263810710D92EBD673767004082
:101DB0009387F77F2322F7C483D7C19103D7418943
:101DC000F98F93F70710FDC3C1673767004093860B
:101DD000F7EF2322D7C4032687C493868184931503
:101DE000060163DA050A9042050690C28C420D4650
:101DF0006375B60A032607C4FD17218A59EE032628
:101E000007C49385C1847D8E3765004090C11387D8
:101E1000C1840146130305C0A148931526003388E9
:101E20006500032808000010A2953378F80023A06D
:101E300005FF0506E31316FF10431366160010C3D3
:101E400010437D8E2320C5C41043799A10C31843D4
:101E5000F98F2320F5C437670040832747C493F7E1
:101E60000740E5DFC1679387F7BF37650040C1656D
:101E70002322F7C4130505C08147FD152148139798
:101E8000270010103A96032606FE2A9785076D8EC6
:101E900010C3E39607FF23A006002254B2509254C9
:101EA0001D454561D1A60945C12601B7B25022544E
:101EB00092544561828083C7A18781C7154723A8B3
:101EC000E1848280114723A8E1848280828091E5A9
:101ED000854733B5A7000605828009458280014504
:101EE000828083A70189411106C6238507009D24AE
:101EF000B7670040856637660040938707C09386C2
:101F0000F6F0930506C298439107758F23AEE7FE5E
:101F1000E39BB7FE9307F00F2322F6C4EFF00FC93F
:101F2000B24023A80184410182800D670347375FD7
:101F300083A70189411106C6A384E7002395070002
:101F40000145EFF08F97930500200145EFF0EF97E3
:101F5000C1450145EFF06F99930500040145EFF08D
:101F60008FB5930500080145EFF0EFB20145EFF0A2
:101F70002FACB707002083C547070145EFF08FBBA3
:101F80000145EFF06FA437670040032607C0C16723
:101F90009386F7FF9317160163DF0700832707C0B7
:101FA000F58F85669386F6F0F58FB1669386060801
:101FB000D58F2320F7C037670040832707C093F7EA
:101FC000070485C3832707C0C166FD16F58F8566A4
:101FD0009386F6F0F58FA1669386060CD58F2320A5
:101FE000F7C081450545EFF04F8E9305000C054580
:101FF000EFF06FAA930500030945EFF00F8F9305EB
:1020000000180945EFF02FAB930500040945EFF0E8
:102010006FB28D650545EFF0CF913767004003261D
:1020200047C0C1679386F7FF9317160163DF070068
:10203000832747C0F58F85669386F6F0F58FB166E6
:1020400093860608D58F2322F7C037670040832781
:1020500047C093F7070485C3832747C0C166FD16B1
:10206000F58F85669386F6F0F58FA1669386060C4C
:10207000D58F2322F7C081450945EFF00F859305E1
:1020800000140945EFF02FA1930500030945EFF077
:10209000CF85930500180945EFF0EFA193050004E3
:1020A0000945EFF02FA98D650945EFF08F88376757
:1020B0000040032687C0C1679386F7FF9317160178
:1020C00063DF0700832787C0F58F85669386F6F068
:1020D000F58FB16693860608D58F2324F7C037673E
:1020E0000040832787C093F7070485C3832787C0F1
:1020F000C166FD16F58F85669386F6F0F58FA166AD
:102100009386060CD58F2324F7C00145EFE0FFB37B
:10211000B240054723A8E184410182809385418133
:102120006FE06FE99385C1806FE0EFE883A70189D5
:1021300083C53700914763EAB700B70700208E05D3
:1021400093878707BE956FE00FE7014582800145C1
:1021500082808280B7670040054723A0E7C423A0A0
:1021600007C4096723A207C4130707C0239AE1889D
:102170000967130707C023A0E7C401458280411106
:1021800002C6B767004083A707C4376700404168AD
:10219000C207C1838146130307C07D1893858192CE
:1021A000A148139626003305660008412E96850641
:1021B0003375050108C2E39616FF93E60740232016
:1021C000D7C493E61740F99BC207C1832320D7C425
:1021D00093E607402320D7C4B766004003A746C450
:1021E0001377074065DF41671307F7BF23A2E6C4F3
:1021F0004168376700408146130307C07D18A14836
:10220000139626003385C50008411A968506337556
:10221000050108C2E39616FF93E787402320F7C421
:10222000832707C4C207C18393E747002320F7C46D
:1022300041016FF09F84411122C43764004083271D
:1022400004C406C6C207C183ED9BC207C183232015
:10225000F4C4EFF05F84B167938707F02320F4C4E0
:10226000B240224441018280411122C406C69D47EA
:102270006304F50023A0A19283A701921547636D23
:10228000F7000D678A071307876ABA979C4382870E
:1022900083A7418581E74537994711A0954723A03A
:1022A000F19201A8493F914723A0F192054723AA43
:1022B000E184B24022444101828093870192094720
:1022C0002382E7008D47E1BF1387019283474700D0
:1022D000FD1793F7F70F2302F7008347470093F7A3
:1022E000F70FE1FB914765BF37670040832707C4BD
:1022F000C207C18393E707012320F7C4954723A0B2
:10230000F19213840192A9472302F4005DB7138769
:10231000019283474700FD1793F7F70F2302F70059
:102320008347470093F7F70FC9F7376700408327C4
:1023300007C4C207C183BD9BC207C1832320F7C462
:10234000994723A0F19223AA0184A5B739713EDAF7
:102350002ED232D436D63AD842DC46DE938741823A
:1023600022CC804326CA06CEAA8409C41C4C99E319
:10237000228515230C4454102686228536C6EF008C
:102380007016F2406244D24421618280011126CA53
:102390004AC806CE22CC4EC652C4AA842E8901C594
:1023A0001C4D91E3CD299C4C804499E32685E52181
:1023B0009717000093870733631CF402C0408357CC
:1023C000C400A18BB1C71C48A1C7FD59294A1C44B0
:1023D00083450900FD17B1E91CC463DE07062286A8
:1023E000A94526857120FD576308F502294535A0CA
:1023F00097170000938707316314F4008044C1B736
:10240000971700009387072CE31BF4FAC04445BFDD
:10241000A2852685312A55D97D55F2406244D244A1
:102420004249B249224A056182801CC4050963D72A
:102430000700184C63CBE700638945011C401387F4
:10244000170018C02380B70059B7228626850D20B3
:10245000E31F35F7D1B71C401387170018C0294771
:102460002380E70061B793874182AA85884339BFFB
:10247000011122CC26CA4AC806CE4EC6AA842E898D
:10248000328401C51C4D91E33921971700009387D1
:1024900067256319F406C0401C4C1CC48357C40054
:1024A000A18BC9C31C48BDCF1C4808409379F90FC4
:1024B0001379F90F1D8D5C486346F500A2852685CA
:1024C000652C2DE51C440505FD171CC41C40138715
:1024D000170018C0238037015C486389A700835721
:1024E000C400858B81CBA9476316F900A285268598
:1024F00061240DEDF24062444A85D2444249B2491A
:1025000005618280971700009387C71F6314F4004A
:10251000804459B7971700009387C71AE31EF4F653
:10252000C0449DBFA285268521203DDD7D59D9B7B8
:1025300041119387418226C2844322C44AC006C601
:102540002A892E8489C49C4C99E32685A92697174D
:10255000000093872719631CF402C0400317C400CE
:1025600093170701C18393F68700B5EE93F6070131
:102570009DEEA5472320F900136707042316E40006
:102580007D55B2402244924402494101828097170E
:102590000000938727176314F4008044C1B797178E
:1025A000000093872712E31BF4FAC04445BF918BC8
:1025B0008DC74C5889C9930744046384F5004A8544
:1025C000352B232A04028357C4002322040093F7E7
:1025D000B7FD2316F4001C481CC08357C40093E7C2
:1025E00087002316F4001C4881EF8357C4001307AB
:1025F000002093F707286385E700A2854A85852197
:102600008357C40013F7170005C75C482324040050
:10261000B307F0401CCC1C480145A5F78317C40044
:1026200013F7070839DF93E707042316F40089BF7F
:10263000898B014791E3584818C4F1BF83D7C5007F
:10264000011122CC26CA06CE4AC84EC613F787000F
:10265000AA842E8471EFD841634DE000B841634AEB
:10266000E0000145F2406244D2444249B24905616A
:10267000828058547DD703A904009396370123A084
:10268000040063DD060670488357C400918B99C728
:102690005C401D8E5C5899C33C401D8E5C540C50B0
:1026A000814626858297FD570357C400631DF500B8
:1026B0009440F54763E8D706B70740208507B3D7AE
:1026C000D700858BA5C31C48232204001CC0931788
:1026D000370163D80700FD576314F5009C4091E370
:1026E00068C84C5823A02401ADDD930744046384DB
:1026F000F50026852121232A0402A5B70C500146A6
:10270000854626850297FD572A86E31FF5F69C40ED
:10271000A5DF75476385E70059476394E70423A065
:10272000240181B7136707042316E4007D551DBFFC
:1027300083A90501E38709F203A905008D8B23A076
:10274000350133093941014791E3D84918C4E35AA7
:1027500020F11C540C50CA864E8626858297634908
:10276000A0008357C40093E707042316F4007DBF3D
:10277000AA993309A940E1BF9C49B9CF011122CCE4
:1027800006CE2A8411C51C4D81E72EC62922B245EA
:1027900097170000938707F5639BF5004C408397DC
:1027A000C50095C722856244F240056141BD971777
:1027B0000000938727F56394F5000C44CDB7971775
:1027C0000000938727F0E39CF5FC4C44C9BFF2401E
:1027D000624401450561828001458280411122C425
:1027E00006C62A842316B5002317C500232005003A
:1027F00023220500232405002322050623280500A3
:10280000232A0500232C0500214681451305C50513
:10281000EFD01F9397170000938787B45CD097176A
:1028200000009387E7B61CD497170000938727BB57
:102830005CD4971700009387E7BD00D01CD8B24046
:1028400022444101828097050000938525F3A9A2C7
:10285000411126C2130680069384F5FFB384C40297
:102860004AC02E8922C406C693854407252E2A8491
:1028700001CD2320050023222501310508C413863C
:1028800084068145EFD0DF8B2285B24022449244FA
:102890000249410182801C4DADE3411106C622C4AC
:1028A00097070000938767FA1CD59387C1829C43E2
:1028B0002324050423260504232805046314F500B6
:1028C00085471CCD2A841D2848C02285052808C4B8
:1028D00022852D2048C448400146914501370844CF
:1028E0000546A545E53D48440946C945C53D8547DA
:1028F0001CCCB240224441018280828041119387E6
:10290000C18226C284434AC006C69C4C22C42A897E
:1029100099E326854937938484048044DC40FD177D
:1029200063D607009C40B9CF8440C5BF0317C400DD
:1029300039E7C177850723220406232004002322D8
:102940000400232404005CC423280400232A040078
:10295000232C0400214681451305C405EFD04FFE0A
:10296000232A0402232C040223240404232604041F
:102970002285B240224492440249410182801304DC
:10298000840671BF91454A85E13588C051FDB14744
:102990002320F9000144E9BF797122D44AD052CCF6
:1029A00056CA5AC85EC606D626D24ECE2A8AAE8AE5
:1029B000130485040149054BFD5B09ECB250225418
:1029C0004A8592540259F249624AD24A424BB24B6A
:1029D00045618280044483294400FD1963D40900C1
:1029E0000040E1BF83D7C400637BFB008397E40012
:1029F00063877701A6855285829A3369A9009384FB
:102A00008406E1BF1971A6DAAE848395E500A2DCE5
:102A100086DE328463DC050083D7C40023A0060071
:102A200093F7070885E7930700401DA0300836C6D6
:102A3000EF00D023B246E34105FE7247BD67F98F30
:102A40007977BA9793B717009CC2F1BF9307000438
:102A50001CC0F6506654D65401450961828083D764
:102A6000C500011122CC06CE26CA4AC8898B2E8405
:102A700089CF930774041CC01CC885475CC8F2400A
:102A80006244D24442490561828074003000AA84C5
:102A9000953FA2452A892685312201ED8317C4007E
:102AA00013F7072069FFF19B93E727002316F40033
:102AB000C9B797070000938747D99CD48357C400B0
:102AC00008C008C893E707082316F400A2475CC8AB
:102AD000B24791CF8315E4002685EF00D01B01C9D2
:102AE0008357C400F19B93E717002316F400835724
:102AF000C4003369F9002316240151B7DDC183A74F
:102B0000C5FF411122C406C626C21384C5FF63D384
:102B100007003E94AA84EF00F01E938781859C43B2
:102B200081EF2322040023AC81842244B240268515
:102B3000924441016F00301D637EF400144033075E
:102B4000D4006396E7009843DC43369718C05CC016
:102B5000D9BFBA87D84319C3E37DE4FE94433386D3
:102B6000D700631F86001040B29694C33386D70007
:102B7000E31DC7FA10435843B29694C3D8C375B740
:102B80006375C400B1479CC04DB71040B306C40084
:102B90006316D70014435843B29614C058C0C0C33C
:102BA00069B78280011126CA93843500F19806CE58
:102BB00022CC4AC84EC6A104B14763F3F404B14421
:102BC00063E2B4042A89EF00F01393878185984368
:102BD0003A8439E09387C1859C4391E781454A85D2
:102BE000892F23AEA184A6854A85A127FD596319A3
:102BF0003507B1472320F9004A85EF00D01029A0FE
:102C0000E3D004FCB1471CC10145F2406244D24408
:102C10004249B249056182801C40858F63CF07021B
:102C2000AD4663F6F6001CC03E9404C031A05C4083
:102C30006313870223ACF1844A85EF00D00C13059F
:102C4000B4009307440061993307F5405DDF3A947F
:102C5000898F1CC05DBF5CC3C5B72287404095BF4C
:102C6000130435007198E30285FCB305A4404A853E
:102C7000C925E31C35FBB5BF1C46FD171CC663DA2E
:102C80000700184E63C5E700A9476394F5006FF08D
:102C90002FFE1C422E851387170018C22380B70011
:102CA0008280011122CC26CA4AC84EC652C406CE22
:102CB0002A89AE893284B304D6007D5A6314940005
:102CC000014509A8834504004E864A8575370504E9
:102CD000E31645FFF2406244D2444249B249224AD7
:102CE00005618280357122CD26CB4AC94EC706CFF9
:102CF00052C556C35AC1DEDEE2DCE6DAAA89AE84EA
:102D00003289368409C51C4D99E3EFF0DFB8971777
:102D100000009387279D639BF40C83A4490083D70D
:102D2000C400A18BF5C79C48E5C793070002A30424
:102D3000F1029307000302D22305F10222C6930B8E
:102D40005002971A0000938AEA9D054C294B4A8449
:102D50008347040099C36390770FB30C2441638DBC
:102D60000C00E6864A86A6854E85253FFD576306FC
:102D7000F51E9256E69636D283470400638F071CF1
:102D8000FD571309140002C802CE3ECA02CCA309A3
:102D9000010482D48345090015465685B9271304DA
:102DA0001900C24759E913F7070109C713070002C1
:102DB000A309E10413F7870009C71307B002A309A9
:102DC000E104834609001307A0026380E608F24786
:102DD0004A848146254603470400930514001307DF
:102DE00007FD6379E60AB5CA3ECE85A897170000AD
:102DF000938747916395F40083A489000DB79717D3
:102E000000009387278CE39CF4F083A4C90001BFE2
:102E1000A6854E85EFF0CFF109D97D55FA406A4479
:102E2000DA444A49BA492A4A9A4A0A4BF65B665C2E
:102E3000D65C0D618280050421BF330555413315F1
:102E4000AC00C98F3EC82289B1B73247930647000C
:102E5000184336C6634907023ACE03470400930776
:102E6000E002631FF704034714009307A002631BEB
:102E7000F702B2470904138747009C433AC663C16F
:102E800007023ECA35A83307E04093E727003ACE51
:102E90003EC8E1B7B387670385462E84BA9725BF3E
:102EA000FD57C5B7050402CA814681472546034739
:102EB000040093051400130707FD6376E606F1F29C
:102EC000834504000D461715000013052586312D96
:102ED00011CD97170000938767851D8D9307000418
:102EE000B397A700424505045D8D2AC883450400B9
:102EF0001946171500001305A583130914002304B0
:102F0000B102E5233DC197D7FFFF9387A70F95E750
:102F10004247B2471377071009CF91073EC6925731
:102F2000D2973ED22DB5B387670385462E84BA97D4
:102F3000BDBF9D07E19BA107D5B7780097060000AC
:102F4000938666D626860C084E8597000000E7001B
:102F50000000FD572A8AE314F5FC83D7C40093F7D9
:102F60000704E39C07EA125555BD78009706000058
:102F7000938666D326860C084E85012AD9BF7971BF
:102F800056CA9C49BA8A984522D426D24ECE52CCF3
:102F900006D64AD05AC85EC6AA892E84B284368A1A
:102FA00063D3E700BA879CC00347340419C385077D
:102FB0009CC01C4093F7070281C79C4089079CC0B6
:102FC0000329040013796900631A0900130B9401A3
:102FD000FD5B5C449840998F634CF9041C40834628
:102FE000340493F70702B336D000A5EB130634047C
:102FF000D2854E85829AFD576303F5041C40114625
:103000009840998B544481446397C700B384E64049
:1030100063D3040081441C4418486354F700998F1B
:10302000BE94014969047D5B63982405014509A8A4
:1030300085465A86D2854E85829A631E75017D55D6
:10304000B250225492540259F249624AD24A424B37
:10305000B24B456182800509ADBF3307D40013062A
:103060000003A301C7040347540493871600A297E3
:103070008906A381E7049DBF85462286D2854E85B9
:10308000829AE30E65FB050945B7797122D426D2F1
:103090004AD04ECE06D652CC56CA5AC8B68983C636
:1030A0008501930790063289AA842E8413863504FD
:1030B000638DF60263E2D706930780056387F618EF
:1030C00063EDD7006380062293073004638EF60A0F
:1030D000930A24042301D404C9A09307300663850E
:1030E000F60A93074006E395F6FE1C40084393F664
:1030F000070893054500C5C61C410CC363D80700EB
:103100001307D002B307F040A301E40497060000C0
:103110009386866229476DA8930700076383F61696
:1031200063E5D7029307E006638AF6189307F00673
:10313000E390F6FA0C401C4313F80508138547008A
:103140006307080608C39C438DA893075007E383D1
:10315000F6FE93078007638AF61293073007E39918
:10316000F6F61C43D04181459386470014C383AAD9
:10317000070056859D2E01C53305554148C05C406A
:103180001CC8A301040471A81C43930A2404938659
:1031900047009C4314C32301F4048547D5B793F635
:1031A00007041C410CC3B9DAC207C18781BF93F57C
:1031B000050408C3C9D983D707001307F00663873E
:1031C000E60E97060000938626572947A3010404BC
:1031D0004C400CC463C5050008406D9908C099E3D4
:1031E000B28A91CDB28AB3F5E702FD1AB69583C5CE
:1031F00005002380BA00B3D5E70263FFE70AA147C1
:10320000631EF7001C40858B91CB58401C4863C758
:10321000E70093070003A38FFAFEFD1A3306564119
:1032200010C84E87CA867000A2852685893B7D5AC4
:10323000631E450B7D55B250225492540259F249F7
:10324000624AD24A424B45618280A382D5049706E6
:1032500000009386664E0C40084313F805081C4195
:103260001105630D080208C313F7150001C793E5A4
:1032700005020CC04147B9FB0C4093F5F5FD0CC0AD
:10328000B1B79C4193E707029CC193078007A30253
:10329000F404970600009386664B75BF13F8050487
:1032A00008C3E30308FCC207C1837DBF9706000083
:1032B00093868648214719BFAE8735B794411C4392
:1032C000CC4913F80608138547006306080008C3B5
:1032D0009C438CC301A808C393F606049C43F5DA0B
:1032E0002390B70023280400B28A25BF14485686CD
:1032F000CA8526858299E30F45F31C40898B8DE7AB
:10330000B2474844E359F5F23E8535B785465686BF
:10331000CA8526858299E30F65F1050A5C44324728
:10332000998FE345FAFEE9BF014A930A94017D5B58
:10333000F5B7411122C42A842E8523A4019406C620
:10334000EFE00FEFFD576317F500938781949C43DF
:1033500091C31CC0B240224441018280411122C469
:103360002E848395E50006C64522634905007C4806
:10337000AA977CC8B2402244410182808357C4008E
:103380007D777D17F98F2316F400EDB783D7C5003D
:10339000011122CC26CA4AC84EC606CE93F70710A2
:1033A000AA842E843289B68991C78395E50089461F
:1033B000014631228357C4007D777D17F98F23168C
:1033C000F4008315E4006244F240CE864A86B24996
:1033D00042492685D24405613DA8411122C42E846C
:1033E0008395E50006C6E128FD570357C400631B1B
:1033F000F500FD77FD17F98F2316F400B240224443
:10340000410182808567D98F2316F40068C8FDB713
:103410008395E50005A8411122C42A842E85B28532
:10342000368623A4019406C6EFE0CFDBFD57631771
:10343000F500938781949C4391C31CC0B240224401
:1034400041018280411122C42A842E8523A4019443
:1034500006C6CD20FD576317F500938781949C43E2
:1034600091C31CC0B240224441018280411122C458
:103470002A842E85B28523A4019406C6D120FD5747
:103480006317F500938781949C4391C31CC0B2409D
:10349000224441018280411122C42A842E8523A422
:1034A000019406C66520FD576317F5009387819444
:1034B0009C4391C31CC0B24022444101828041110F
:1034C00022C42A842E85B285368623A4019406C69A
:1034D0006120FD576317F500938781949C4391C346
:1034E0001CC0B24022444101828093F5F50F2A9618
:1034F0006314C5000145828083470500E38DB7FE54
:103500000505FDB782808280411122C42A842E8560
:10351000B285368623A4019406C6A920FD576317F9
:10352000F500938781949C4391C31CC0B240224410
:10353000410182809307800523A4F1947D55828008
:103540009307800523A4F1947D558280930780051D
:1035500023A4F194014582809307800523A4F1946C
:103560007D5582809307800523A4F1947D55828048
:1035700053797374656D436C6B3A25640D0A0000D2
:1035800055534244204465766963652054657374DD
:103590000D00000055534220436F6E6E65637465E5
:1035A000640D000055534220646973436F6E6E656D
:1035B000637465640D00000075736220656E746548
:1035C00072206C6F7720706F776572206D6F646505
:1035D0000D0000006C65617665206C6F7720706F60
:1035E000776572206D6F64650D00000009022E0082
:1035F00001010080320904000004FF805500070526
:103600008202400000070502024000000705810217
:1036100040000007050102400000000012011001F7
:10362000FF805540861A3755000101020301000052
:103630003203570043004800330032002000560098
:10364000690072007400750061006C002000430086
:103650004F004D00200050006F00720074002000E9
:10366000200000001A0357004300480033003200D6
:10367000000000000000000000000000000000004A
:1036800026035700430048004900430072006F00C2
:1036900065006C0065006300740072006F006E00CE
:1036A000690063007300000090220000A422000063
:1036B000BA220000C8220000E82200000E23000009
:1036C00000000000000000000000000000000000FA
:1036D00000000000000000000000000000000000EA
:1036E00000000000000000000000000000000000DA
:1036F00000000000000000000000000000000000CA
:1037000000000000000000000000000000000000B9
:1037100000000000000000000000000000000000A9
:10372000232D302B20000000686C4C006566674537
:10373000464700003031323334353637383941426C
:1037400043444546000000003031323334353637CB
:0C375000383961626364656600000000A7
:10375C00000000000102030401020304060708092B
:10376C00BE1B0000361C0000FE0C0000FE0C00000E
:10377C00FE0C0000FE0C0000FE0C0000EE1B000016
:10378C00661C0000FE0C0000FE0C0000FE0C00008D
:10379C00FE0C0000FE0C0000E21E00002A1F0000C0
:1037AC00CC1E000052210000DE1E00004E21000045
:1037BC00CE1E00001C210000242100002C21000042
:1037CC000000000040000000480100200400000040
:1037DC008036000026000000303600003200000069
:1037EC00643600001A000000FE0C0000B61E00003B
:1037FC00FE0C0000FE0C0000FE0C0000FE0C000095
:10380C00FE0C0000FE0C0000C41E000000000000B6
:10381C00E036000000370000C03600000000000059
:10382C00000000000000000000000000000000008C
:10383C00000000000000000000000000000000007C
:10384C00000000000000000000000000000000006C
:10385C00000000000000000000000000000000005C
:10386C00000000000000000000000000000000004C
:10387C0000449508020406086C020020EC35000098
:10388C002E0000001C360000120000000401000095
:10389C0001000000BC00002004030904BC0000204F
:00000001FF
