:100000006F100056130000001300000013000000E2
:100010001300000013000000130000001300000094
:100020001300000013000000130000001300000084
:08003000130000007300100032
:100038000000000000000000E8010000EC010000E2
:1000480000000000F814000000000000000000009C
:10005800FA140000FC14000000000000000000007A
:10006800FE14000000000000001500000000000061
:100078000215000004150000061500000815000010
:100088000A1500000C1500000E15000010150000E0
:1000980012150000141500001615000018150000B0
:1000A8001A1500001C1500001E1500002015000080
:1000B8002215000024150000261500002815000050
:1000C8001A1B00002C1500002E150000301500002A
:1000D80032150000341500003615000038150000F0
:1000E8003A1500003C1500003E15000040150000C0
:1000F8004215000044150000461500004815000090
:100108004A1500004C1500004E150000501500005F
:100118005215000054150000101B0000581500006F
:100128005A1500005C1500005E1500000000000074
:080138000000000000000000BF
:100140003D432A876373C3029377F700BDEFADE5A4
:10015000937606FF3D8ABA960CC34CC30CC74CC7B6
:100160004107E36BD7FE11E28280B306C3408A06E3
:100170009702000096966780A6002307B700A306A3
:10018000B7002306B700A305B7002305B700A304F3
:10019000B7002304B700A303B7002303B700A302EB
:1001A000B7002302B700A301B7002301B700A300E3
:1001B000B7002300B700828093F5F50F9396850072
:1001C000D58D93960501D58D61B79396270097023B
:1001D000000096968682E78086FA9680C1171D8F6A
:1001E0003E96E374C3F8A5B77300203001A079717F
:1001F0004AD085452A89114506D622D426D2EF1049
:10020000206E371401408D473EC49144A1474C00F5
:100210001305048026C62312F100EF100044E147C5
:100220004C00130504803EC623129100EF10E042FB
:10023000854537050200EF10806C37440040B70752
:100240000C000C08130504403ECC4AC802CA231E09
:100250000100EF10A06C130504408545EF10807974
:100260001305044093055052EF10807CB250225485
:1002700092540259456182803745004041119305EF
:1002800050521305054006C622C426C2EF108079DD
:1002900031C583A7818681C70545EF20400CB7444F
:1002A000004013850440EF1040771374F50F930559
:1002B000505213850440EF10A07737350000A28517
:1002C00013058566EF20E0179307C004630DF40261
:1002D00063EB870093071004630AF404B2402244DE
:1002E000924441018280930710056306F406930748
:1002F0002005E315F4FE3735000013058568EF206F
:10030000E025894701A83735000013054567EF2030
:10031000E02485472388F184EF10903723880184F7
:100320002244B240924441016F10903637350000AC
:100330001305C569EF20802213848184914723012E
:10034000F400EF10B038230104002244B24092447C
:1003500041016F10B037373500001305856AEF2073
:10036000E01F1384818493079003D1BF4111094595
:1003700006C6EF10C03BEF10806C716513050520B9
:10038000BD35B707002083A5871437350000130556
:10039000856BEF20000B373500001305856CEF20CF
:1003A000E01BEF10E077EF00502A81450145EF1088
:1003B00010011305C02BEF10206B85450545EF108C
:1003C0001000EF10407B4D3DFDBFB7170240984332
:1003D000B706FFF81367170098C3D843758FD8C3C3
:1003E0009843B706F7FEFD16758F98C39843B70676
:1003F000FCFFFD16758F98C3D843B70681FFFD1625
:10040000758FD8C337079F0098C7D843719BD8C34F
:10041000D843318B75FFB746024003A706801367A8
:10042000070123A0E680D843B706C1FFFD16D8C355
:10043000D843D8C3D84313670740D8C3D843758F70
:10044000D8C3D843B7063C00558FD8C39843B706E6
:100450000001558F98C3B717024098439316670061
:10046000E3DD06FED843B716024013672700D8C362
:100470002147DC42B18BE39EE7FE8280411122C41A
:1004800006C611E983A7C18A05472398E700B24051
:1004900022444101828083A7818A9C43829703A5DD
:1004A000C18A2905EDB7411122C406C611E983A707
:1004B000C18A05472398E700B24022444101828067
:1004C00083A7818A9C47829703A5C18A3105EDB72E
:1004D00003A7C18A09E589472318F70082804111E3
:1004E00022C406C6239E0186834707002A8493F709
:1004F000F70795EF034797009377070281C789476E
:10050000238EF1861377070483C7C18719CF93E73A
:100510001700238EF18683A7818A9C4B82971385CF
:10052000C187B240224441018280F99BDDB78546F4
:100530001385C187E387D7FE89460145E393D7FE3C
:1005400003475700B7660040938606C09377F700CD
:100550008A07B69762079C4361876359070093F740
:1005600007034147E399E7FA854765B70D67F98FB8
:100570000567CDBF011126CA83A4C18A22CC4EC60D
:1005800003D4040152C406CE4AC856C23E8A35E09E
:1005900003C784009147631EF704138781831443C4
:1005A00085476393F604B767004083A707C5B7364E
:1005B00000208906C207C183B697860723A00700DB
:1005C00093070003239AF18A23200700114983A788
:1005D000C18A23842701F2406244D2444249B2498D
:1005E000224A924A05618280C147239AF18A1D49B5
:1005F000F9BF83D74401114963F38700094963F3C5
:1006000087003E849C4C4204418022858297AA8ABE
:100610000145EF0010612286AA855685EF00303A29
:10062000A2850145EF00D06383D704010D67818F58
:100630002398F40083D724013E9493070003239A60
:10064000F18A239984002399E18A51B783A7C18A4B
:1006500083C6D18103C73700094563E4E60283C638
:10066000270085E283D6470089EE411106C623851F
:10067000E70083A7818ADC438297B24001454101AC
:1006800082808280011122CC83A7C18A03A741887E
:1006900006CE83C53700184F03C55700029783A7BE
:1006A000C18A03C7A70005CF2AC615E903C74700BB
:1006B0001DE783C7270085E783A7818ADC478297E8
:1006C00083A7C18A324503C75700A385E70003C744
:1006D00037002386E700F2406244056182800945C5
:1006E000DDBF83A7C18A83C6070093F6F60791EAA8
:1006F00003C797001377F7FDA384E70001473A8506
:10070000828009460947E39CC6FE83D62700E5FAA6
:1007100083C64700EDF603C6570041113767004016
:100720001375F6F722C4130707C0131425003A9473
:100730006206144006C626C26186635A060493F612
:10074000060383C5C1810947637DB5029DCA83C77E
:10075000A70085CB1C40635F060293F70703414760
:10076000639CE7001374F50F2285EF007044930536
:1007700000032285EF00102C83A7818ADC4B82972F
:100780000147B240224492443A85410182800D677C
:10079000F98E45BFC164FD140D67E58FF98F0567BC
:1007A000E39CE7FC1DEDB707002083C50709EF00B8
:1007B000104D1C4071771307F7F8F98FC2070D67CA
:1007C000C183B98F617713070708D98FC207C18327
:1007D0001CC08D661840658F758FE30FD7F81CC05D
:1007E000D5BFEF00B0391C4071771307F7F8F98FC8
:1007F000C2070D67C183B98F617713070708D98FC7
:10080000C207C1831CC08D661840658F758FE305D4
:10081000D7F61CC0D5BF03A6C18AB767004093872F
:1008200007C08346560093F5F6F713972500BA974D
:10083000E2069843E18663D206061377070303C8EE
:10084000C181094563FA050983552600D1E549C7E9
:100850000347A60051C34111984306C663D406045A
:10086000E5769386F6FB758F42074183E176134761
:10087000070193860608558F4207418398C3414676
:10088000944393F60603639DC60083A7818A9C4F19
:100890008297B2400145410182800D65698F45B75D
:1008A00098C3F9BFF1769386F6F8758F420785668F
:1008B0004183358FE17693860608558F4207418341
:1008C000416698C37D160D6585659443F18EE98E6A
:1008D000E38DB6FA98C3D5BF828003A7C18A4111C0
:1008E00006C68347970093E70702A304F70083A790
:1008F000818ADC4F8297B24001454101828003A783
:10090000C18A8357270101E903D545001D8D2318AE
:10091000A7000145828088413E958280B70700206C
:1009200083C507094111014506C6EF00503583A76D
:10093000C18A03C58700A1476318F500056723999D
:10094000E18A4147239AE18AB2405D1513351500CB
:1009500041018280011126CA4AC803A9C18A06CE74
:1009600022CC3766004083468900832706C5254789
:10097000638BE60441641307F4FFB7360020F98F58
:100980009106B69786078043798C06043294834794
:1009900004002300F90083471400A300F900035565
:1009A0004400EF0050322311A9000355840003A92D
:1009B000C18AEF0050312312A9000357C40083A756
:1009C000C18A2393E70083A7C18A05472384E700F0
:1009D00003D7670003C417006316070E03C7070099
:1009E0001377F70755EF25476315E400853125E9AF
:1009F00025A81547631DE40403873700635D0700DE
:100A0000A14703A7C18A2304F7006244F240D244FD
:100A10004249056121B703C727007DF303D747008B
:100A200065F383C7A700E9FFB767004083A707C541
:100A3000373700200907C207C183BA97860723A06A
:100A4000070013070003239AE18A99475DBF0D470A
:100A50006317E40283C637000547638DE60083A76A
:100A600041882285DC4B82970D47A547E30BE5F8CB
:100A700045DD79B783D74700FDF385358DBF054741
:100A8000E31FE4FC03C73700E31B87FC03D74700E1
:100A900079F783C7970093F70702F1D3993181BFA4
:100AA00085476317F700AD47E31BF4FAE13E81B7D2
:100AB0008946E316D7FAE303F4FE8D47E311F4FA0F
:100AC000993B35B71947631BE40203C70700137747
:100AD000F7077DE383C72700854603A74188639511
:100AE000D7005C4FF1CBA1A089466394D7001C537B
:100AF000D5BF8D466392D70C5C53EDB775E003D735
:100B000027005DEBD843C1769386F60F758FB70645
:100B100002006313D70A03C707001377F7071DEF17
:100B200083D74700D1EBB70700009387074D03A792
:100B3000C18A0145231907001CCF8297014583A76D
:100B4000C18AC166FD1603D707016304D708894629
:100B50006304D5006318070E2147ADA885466310CE
:100B6000D70203A7418803C557008145184F029754
:100B700021E583A7C18A83C7A700D5F735A8894691
:100B8000631CD70203C75700B7660040938606C0B0
:100B90001376F70093172600B6979C4393168701A8
:100BA000E18663DC060293F7070383C6C1816375A0
:100BB000D6001377070771D303A7C18A83A741889B
:100BC000034517009C4B82978D47E31AF5F683A7E0
:100BD000C18A25472384E7000DBD8D66F58FF1B7E7
:100BE0002147631CE40083C7070093F7F707E9F781
:100BF000B70700009387C7471DBF2947E31EE4FAE4
:100C000003C7070085461377F707E317D7FA03C72B
:100C1000A7005DD303D7270045F3D843C176938659
:100C2000F60F758FC166E319D7F803A7418803C58E
:100C300057008145184F029741F1B707000093878D
:100C4000674AF5B58386070063D5060483A6418805
:100C500083D5670003C6C6022EC632459316060129
:100C6000C182637AE50032472398E700239AD700D0
:100C7000EFF05F9059BBE37BB7FE6375D70023AC01
:100C80000182EDB73367C70275F3054623ACC18215
:100C9000F1BF0D472384E7000D672399E18AB5B3BF
:100CA00001114AC822CC03A4C18A26CA06CE4EC668
:100CB00083478400A1441387E7FF1377D70F3DCF05
:100CC0001387D7FF1377D70F4DEF1C4C95CF835465
:100CD0000401A1C80357440163739700BA84C20496
:100CE000C1802685829783570401AA890145858F93
:100CF0002318F40083572401A6972319F4008927A9
:100D0000AA8526864E85C5218357040199CB0D6798
:100D1000814501452399E18AA12713070003239AFE
:100D2000E18A835704018356440103A7C18A63E221
:100D3000D7028D472304F7008344870083A7C18A25
:100D4000238497006244F240D2444249B24905618B
:100D5000F1B699C39547F9BF99472304F700B767E0
:100D6000004083A707C5B73600208906C207C183A4
:100D7000B697860723A0070093060003239AD18A1B
:100D800065BF1D47A144E39BE7FA83A74188DC4781
:100D900082976DB703C3C18137660040C16505689E
:100DA000A1680147130606C0FD151308F8F09388E3
:100DB00008086369670013650508B767004023A644
:100DC000A7C4828093162700B2969C42ED8FB3F79A
:100DD0000701D98FB3E717019CC20507D9BF41119D
:100DE00022C483A7C18A06C683C687001387E6FF8D
:100DF0001377D70F19EFEFF0EFF783A7C18A03C777
:100E0000870083A7C18A2384E7002244B2404101BE
:100E100031B619462147E396C6FE83C6170015472B
:100E2000639EE60003C707001377F70701EB03C5CE
:100E300037008D3783A7818A9C53829783A7418887
:100E40009C478297214775BF82809387C18823A6DC
:100E5000F18A09472384E7003707002093064706F5
:100E600023A2D18803234706B70700209387470CA6
:100E700023A4F18A028379714ECE52CCB7090020A7
:100E8000370A002022D426D206D64AD056CA2317C3
:100E900001009389C902130A8A04B766004083A738
:100EA00046C4139607014182239CC18A1396070109
:100EB0006356061283D7818B3289BD8B2384F188D8
:100EC000138606C06399072883A706C00D66C1650F
:100ED000C207C1832399F18A83D7218BFD150D6841
:100EE00093F70703239AF18A83D7218B8968130527
:100EF0000002F18F2399F18A83A706C03166130699
:100F0000F6FBF18F096613060602B18F61761306B0
:100F10000608D18FC207C18323A0F6C03766004000
:100F2000832606C0130906C0ED8EB3F60601639052
:100F3000160D832606C093F60603639AA60A83D786
:100F4000818BC18BDDEB8327090025671307F7F041
:100F5000F98F2320F90061358327090031671307D2
:100F6000F7FBF98F03D7218B9316370163D4060063
:100F70000567B98F03D7218B9316270163D4060029
:100F80000967B98F03D7418B418B19C393C70701F9
:100F900003D7418B1377070219C393C70702617701
:100FA00013070708D98FC207C1833767004041661E
:100FB0002320F7C0B76600407D160D6503A706C065
:100FC00083D5218B718F698F6316B70203A706C083
:100FD00083D5418B13770703631EB700B2502254A9
:100FE00092540259F249624AD24A456182802320D2
:100FF000F6C03DB723A0F6C0D1B783270900856AA4
:10100000C207C1832317F1008357E10013974701FB
:101010006350070A832709001387FAF8F98F232002
:10102000F900EFF03F938327090031671307F7FBBF
:10103000F98F03D7218B9316370163D40600B3C70A
:10104000570103D7218B9316270163D40600096744
:10105000B98F03D7418B418B19C393C7070103D7BE
:10106000418B1377070219C393C7070261771307F0
:101070000708D98FC207C183376700404166232024
:10108000F7C0B76600407D160D6503A706C083D57F
:10109000218B718F698F631AB70003A706C083D5B0
:1010A000418B13770703E30BB7F223A0F6C0F1BF20
:1010B0008357E100C207C187E3D107DE8327090018
:1010C0001387FAF8F98F2320F900D93E8327090006
:1010D00031671307F7FBF98F03D7218B931637017D
:1010E00063D40600B3C7570103D7218B931627019A
:1010F00063D406000967B98F03D7418B418B19C3AD
:1011000093C7070103D7418B1377070219C393C70E
:101110000702617713070708D98FC207C1833767B2
:10112000004041662320F7C0B76600407D160D657C
:1011300003A706C083D5218B718F698F631AB7000F
:1011400003A706C083D5418B13770703E308B7E8ED
:1011500023A0F6C0F1BF1397270032971443C206AD
:10116000C1822317D1008356E100C206C18663DD28
:101170000600FD1714438A070566D2971306F6F892
:101180009C43F18E14C382978357E10093F70708BD
:10119000E38507D083C78188B7660040938606C081
:1011A000139727003697FD1714438A07CE972566B5
:1011B0001306F6F09C43F18E14C38297F9B9B73742
:1011C00000200506BE950586860511E282808347CC
:1011D0001500034705009105A207D98F239EF5FE50
:1011E00009057D16DDB7B73700200506BE950586D3
:1011F000860511E282809C4109057D16231FF5FEBC
:101200009105C5BF619942054181B767004023A898
:10121000A7C48280B7670040938707C00A053E9540
:101220001C4165771307F798F98FDD8DC205C181E1
:101230000CC18280B7670040938707C00A053E95BE
:101240001C4165771307F7FBF98FC20713F70501F8
:10125000C18319C393C7070113F7050219C393C7C5
:101260000702617713070708D98FC207C1831CC122
:10127000184113770703E31CB7FE8280B76700406D
:10128000938707C00A053E951C4171771307F7F84D
:10129000F98FC20713973501C183635407000567AF
:1012A000B98F13972501635407000967B98F6177D8
:1012B00013070708D98FC207C183C1661CC1FD1679
:1012C0000D661841758F718F6313B70082801CC142
:1012D000CDBFB7670040938707C00A053E951C4104
:1012E00065771307F7FBF98FC207C183617793C74F
:1012F000070313070708D98FC207C1831CC19306D0
:1013000000031841137707036313D70082801CC1C1
:10131000CDBFB7670040938707C00A053E951C41C3
:1013200071771307F7F8F98FC2070D67C183B98F7B
:10133000617713070708D98FC207C183C1661CC133
:10134000FD160D661841758F718F6313C70082807B
:101350001CC1CDBFB7670040938707C00A053E9503
:101360001C4105671307F7E0F98F6177130707083A
:10137000D98FC207C1831CC18280E9BFB767004013
:10138000938707C00A053E951441C1671387F7FF8D
:101390009397160163DD07001C41F98F056713075A
:1013A000F7F0F98F316713070708D98F1CC18280C6
:1013B000B7670040938707C00A053E951C4193F725
:1013C000070491CF1C4141677D17F98F056713070B
:1013D000F7F0F98F21671307070CD98F1CC18280A2
:1013E000B767004083A707C50E058581C207C18383
:1013F0003E95B73700203E95060586050CC18280D4
:10140000B767004083A707C50E058581C207C18362
:101410003E95B737002091073E95060586050CC11D
:101420008280B767004083A707C50E05C207C18346
:101430003E95B73700203E9506050355050082808E
:10144000B767004083A707C50E05C207C1833E9555
:10145000B737002091073E950605035505008280A9
:10146000B767004083A707C50E05C207C1833E9535
:10147000B737002089073E9506050CC18280B76703
:10148000004083A707C50E05C207C1833E95B73745
:10149000002099073E959307E003060563FEB70019
:1014A00093D75500FD8981E5FD17C207C183AA07BF
:1014B0002167D98F1CC1828093D71500858991C17E
:1014C0008507AA07C5BF935785001375F50F220539
:1014D0005D8D828037670040F177232207C49387B0
:1014E00007F02398F18AB167938707F02320F7C4A8
:1014F0000145828001A001A001A001A001A001A0DE
:1015000001A001A001A001A001A001A001A001A0D3
:1015100001A001A001A001A001A001A001A001A0C3
:1015200001A001A001A001A001A001A001A001A0B3
:1015300001A001A001A001A001A001A001A001A0A3
:1015400001A001A001A001A001A001A001A001A093
:1015500001A001A001A001A001A001A001A001A083
:1015600097F1FF1F9381813E1711002013018129FC
:10157000172500001305853497F5FF1F938585A86F
:101580001386818363FAC5008322050023A05500DA
:1015900011059105E3EAC5FE138581839385818E4C
:1015A0006377B500232005001105E36DB5FEFD420C
:1015B000739002BC8D42739042809302800873A0A6
:1015C000023097F2FFFF938262A793E2320073909A
:1015D0005230EFE09FDF97F2FFFF938262D9739062
:1015E0001234730020305841032805004C4537065B
:1015F0000140930706403E979346F8FFB1C5832507
:101600000640F58D2320B640D043F18ED4C3144359
:10161000B3E6060114C3184190479346F7FF758E51
:1016200090C7D047F18ED4C7144541466399C60090
:101630009447D98E94C7D447558FD8C78280B69720
:101640009443558F98C382801C43F58F1CC38280BE
:10165000B707014023AAA74082809C4513F70701E2
:1016600013F8F70001C7D8413368E8003717014085
:101670006317E50003D7050035832390E50083D584
:10168000050013F7F50F39C318418146854E3D4FCC
:10169000930F800293028004214E3396DE00B3F84C
:1016A000C500631116039398260033131F011343DB
:1016B000F3FF3377E300B318180133E7E800639FC3
:1016C000F70550C98506E39AC6FD18C11307F00F48
:1016D0006375B70454412146854E3D4F930F8002F8
:1016E00093028004414EB398CE0033F71501639204
:1016F000E8021317260001173313EF001343F3FF1B
:10170000B376D3003317E800D98E639DF701232AFF
:1017100015010506E319C6FD54C18280E39457FA0A
:1017200010C94DB7E39757FE23281501DDB723AE47
:10173000A18282809387C18394430347050089E691
:1017400083472500920731A8944305466391C60458
:10175000834725000346150092076314D60093E7DC
:1017600007F8B7E600E093F7F70FBA962380F64044
:101770008546935757003397E6005441ADC693878B
:1017800007048A07B7E600E0B69798C382808C43C7
:1017900089466393D5028346150083472500636518
:1017A000D6008A06B69779BF9386E6038A06B6976F
:1017B00093F7F70F920765B790438D46631ED600E7
:1017C00083461500834725006364D6008606D9BF8B
:1017D0009386C6078606E1BF94439147E39AF6F8DD
:1017E0008347150085B79387070661BFB717024087
:1017F000D843B70640FFFD16758FD8C3D8435A05A6
:10180000598DC8C38280371702405C439146B18B23
:101810006389D706A146638BD706B7177A009387EB
:1018200007201CC1371602405C423707002013070F
:1018300007009183BD8BBA9783C607001C41B3D7BD
:10184000D7005CC15442A1829D8ABA9683C6060025
:10185000B3D6D70014C55442AD829D8A369703474C
:101860000700B3D7E7005CC5584239839376370049
:1018700013874180369703470700B3D7E7021CC997
:101880008280B727F4009387074061BF5C435843C9
:10189000C166C983BD8B758F8907C5466393D70021
:1018A000C9471DE33747024003270780418B11C713
:1018B00037177A001307072029A037173D001307B1
:1018C0000790B387E702B1BF37170240584393161A
:1018D000E700E3CF06FC3727F40013070740D5B72E
:1018E00099C5371702401C4F5D8D08CF8280B7170E
:1018F0000240984F1345F5FF798D88CF828099C5B6
:10190000371702405C4F5D8D48CF8280B717024089
:10191000D84F1345F5FF798DC8CF828083560501D6
:10192000F577FD17F58F83D66500397122DC06DE69
:10193000D58F03D7C5002318F5008356C500FD7762
:101940009387379FF58F83D645002A842EC6D58F7F
:1019500083D68500D58F83D6A500D58F2316F500B5
:1019600083574501C207C18393F7F7CFD98F231A55
:10197000F5006808493DB747014093870780B245A5
:10198000631EF404A2578356C4006547B387E70279
:10199000C206C186984163D5060406070356C400F3
:1019A0004206B3D7E702130740064186B3D6E702E3
:1019B000B3F7E7029206635706028E079387270361
:1019C000B3D7E70213F77700B367D700C207C18325
:1019D0002314F400F250625421618280925765B75B
:1019E0000A076DBF920793872703B3D7E702BD8B22
:1019F000D58FE9BF81C98357C5000967D98F2316E1
:101A0000F50082800357C500F977FD17F98FC5BF30
:101A100093F5F51F2312B500828003554500137519
:101A2000F51F8280035505006D8D3335A00082803F
:101A300093C5F5FFC205C1812310B5008280B707A9
:101A4000002083A7871437177A0013070720B3D71E
:101A5000E70293F7F70F2381F1841307803EB387E2
:101A6000E7022390F1848280B7F700E0D8438146F3
:101A7000799BD8C303D701843306A70290CBD4CB7C
:101A800098431367070198C398431367170298C3D5
:101A9000D843058B75DF9843799B98C382800111E9
:101AA00026CAB744004022CC4AC84EC606CEAE89EC
:101AB0003289014493840440634A2401F240624421
:101AC0004A85D2444249B2490561828093050004A7
:101AD0002685893F65DDB3878900838507002685D4
:101AE0000504C205C1812D37C1BF138781801C4306
:101AF0009386818E3E95636BD500B7260020938632
:101B0000060063E5A60008C33E858280FD57EDBF51
:101B100037050400353E73002030792273002030F1
:101B20004111094506C6D931B240854537058000C7
:101B30004101F1B33735000041111305456E06C66A
:101B4000EF00D021B2400D4723A6E18641018280FB
:101B50003735000041111305057006C6EF0010204F
:101B600003C7618919C71547B24023A6E186410121
:101B700082800547D5BF79713705040006D622D487
:101B8000C13CB70704003EC80544C14708083ECC25
:101B900022CE02CAEFF03FA593074012280023147B
:101BA000F10022C62305010071369307A003280027
:101BB0002314F1004136B250225445618280411114
:101BC00022C426C22E84AA848545114506C6093B37
:101BD000ADC0B766004083A706C441677517F98F8B
:101BE00023A0F6C4B717014003A74780B716F0FF3C
:101BF000FD16758F23A2E78003A7C780F976938629
:101C0000F67F758F23A6E78003A74780B7460400B9
:101C1000558F23A2E780374702408327078039C8C2
:101C200093E72700B24022442320F78092444101E9
:101C3000828037670040832707C4B716F0FFFD1680
:101C400093E72700C207C1832320F7C4B7170140D9
:101C500003A74780758F23A2E78003A7C780F97683
:101C60009386F67F758F23A6E78003A74780B73654
:101C7000030079BFF59B7DB7238B018A8280828028
:101C8000A38B018A8280828083A6C1869547639C4C
:101C9000F6009387418498436305D700050798C3EE
:101CA000828023A00700828037670040832747C4D3
:101CB000797122D4C207C18326D2239CF18A83D7AB
:101CC000818B83D6018B06D6F58F93F7072085C3CA
:101CD000C1679387F7DF2322F7C4138741858347C2
:101CE0000700850793F7F70F2300F700713F83D7AD
:101CF000818B03D7018BF98FC207C18763D407009B
:101D0000EFF06F9783D7818B03D7018BF98F93F710
:101D1000074089CFC1679387F7BF37670040232209
:101D2000F7C4B707002083A78706829703D7818B64
:101D300083D7018B7D8F9316270163D806003967FF
:101D4000B76600407D1723A2E6C403D7818BF98FC5
:101D500013973701635A0700BD6737670040FD17C7
:101D60002322F7C40145E52B03D7018B83D7818B51
:101D7000F98F13974701635E070083A70182638190
:101D80000710CD29BD67376700409387F77F23226F
:101D9000F7C483D7818B03D7018BF98F93F7071093
:101DA000FDC3C167376700409386F7EF2322D7C48E
:101DB000032687C4938681859315060163DA050A95
:101DC0009042050690C28C420D466375B60A032602
:101DD00007C4FD17218A59EE032607C49385C185E0
:101DE0007D8E3765004090C11387C185014613037E
:101DF00005C0A14893152600338865000328080014
:101E00000010A2953378F80023A005FF0506E31320
:101E100016FF10431366160010C310437D8E232057
:101E2000C5C41043799A10C31843F98F2320F5C411
:101E300037670040832747C493F70740E5DFC16752
:101E40009387F7BF37650040C1652322F7C41305A8
:101E500005C08147FD1521481397270010103A96B9
:101E6000032606FE2A9785076D8E10C3E39607FFAB
:101E700023A006002254B25092541D454561C5A1CD
:101E80000945F12901B7B25022549254456182802C
:101E9000411106C622C40008010083C7718BF5FFFB
:101EA00011469305000E13850185EFF04FB1914562
:101EB0000945EFF0EFDA0945EFF0AFC10547A38B15
:101EC000E18A0100B240224441018280411106C6EC
:101ED00022C40008010083C7618BF5FF21469305EA
:101EE000000C13858184EFF08FADA1450545EFF01F
:101EF0002FD70545EFF0EFBD0547238BE18A0100A1
:101F0000B24022444101828013850186828083C7CA
:101F1000618981C7154723A6E1868280114723A6E0
:101F2000E1868280054723A4E186828023A401867E
:101F30008280828091E5854733B5A70006058280BF
:101F4000094582800145828083A7C18A411106C666
:101F500023850700DD2CB7670040856637660040A3
:101F6000938707C09386F6F0930506C298439107BE
:101F7000758F23AEE7FEE39BB7FE9307F00F232296
:101F8000F6C4EFF02FD5B24023A60186410182802E
:101F90000D670347F77183A7C18A411106C6A38461
:101FA000E700239507000145EFF0CFA5930500203A
:101FB0000145EFF02FA6C1450145EFF0AFA793050E
:101FC00000040145EFF0CFC3930500080145EFF091
:101FD0002FC10145EFF06FBAB707002083C507098D
:101FE0000145EFF0CFC90145EFF0AFB237670040D0
:101FF000032607C0C1679386F7FF9317160163DFB7
:102000000700832707C0F58F85669386F6F0F58F66
:10201000B16693860608D58F2320F7C03767004046
:10202000832707C093F7070485C3832707C0C166CA
:10203000FD16F58F85669386F6F0F58FA16693867B
:10204000060CD58F2320F7C0930500600545EFF0FF
:102050006F9C9305000C0545EFF08FB89305000DBC
:102060000545EFF0EFB9A1450545EFF04FC18D658E
:102070000545EFF0AFA0930500020545EFF08F9BFB
:1020800037670040032647C0C1679386F7FF931761
:10209000160163DF0700832747C0F58F85669386A7
:1020A000F6F0F58FB16693860608D58F2322F7C028
:1020B00037670040832747C093F7070485C383270A
:1020C00047C0C166FD16F58F85669386F6F0F58FDD
:1020D000A1669386060CD58F2322F7C09305006076
:1020E0000945EFF02F939305000E0945EFF04FAF30
:1020F0009305000F0945EFF0AFB091450945EFF0AA
:102100000FB88D650945EFF06F97930500020945FB
:10211000EFF04F9237670040032687C0C167938670
:10212000F7FF9317160163DF0700832787C0F58F3A
:1021300085669386F6F0F58FB16693860608D58F8F
:102140002324F7C037670040832787C093F707042D
:1021500085C3832787C0C166FD16F58F8566938684
:10216000F6F0F58FA1669386060CD58F2324F7C071
:102170000145EFE03FC2B240054723A6E186410199
:102180008280938541816FE08FF79385C1806FE0F6
:102190000FF783A7C18A83C53700914763EAB70069
:1021A000B70700208E059387470ABE956FE02FF58D
:1021B0000145828083A7C18A83C55700894763EAA6
:1021C000B700B70700208E0593874709BE956FE0DB
:1021D0000FF30145828083A7C18A854603C70700A4
:1021E0001376F7076318D60283C627001307200269
:1021F0000945639AE60441113727000006C6130714
:10220000471B2399070098CF01456D37B240014520
:102210004101828003C61700A54601456315D60219
:102220001377070693060002631FD70003D76700E2
:102230002398E70037270000130787F098CF15474A
:102240002384E700828082808280B7670040054750
:1022500023A0E7C423A007C4096723A207C4130768
:1022600007C02398E18A0967130707C023A0E7C4C2
:1022700001458280411102C6B767004083A707C4A9
:10228000376700404168C207C1838146130307C016
:102290007D189385418CA14813962600330566006E
:1022A00008412E9685063375050108C2E39616FF90
:1022B00093E607402320D7C493E61740F99BC20753
:1022C000C1832320D7C493E607402320D7C4B76631
:1022D000004003A746C41377074065DF4167130733
:1022E000F7BF23A2E6C44168376700408146130365
:1022F00007C07D18A148139626003385C500084104
:102300001A9685063375050108C2E39616FF93E712
:1023100087402320F7C4832707C4C207C18393E7FC
:1023200047002320F7C441016FF0DF80411122C430
:1023300037640040832704C406C6C207C183ED9BEF
:10234000C207C1832320F4C4EFF09F80B167938755
:1023500007F02320F4C4B24022444101828041119D
:1023600022C406C69D476304F50023AEA18A83A755
:10237000C18B1547636DF70011678A071307478004
:10238000BA979C43828783A7018781E7453799479E
:1023900011A0954723AEF18A01A8493F914723AE8A
:1023A000F18A054723A8E186B24022444101828098
:1023B0009387C18B09472382E7008D47E1BF1387CD
:1023C000C18B83474700FD1793F7F70F2302F700F0
:1023D0008347470093F7F70FE1FB914765BF3767E6
:1023E0000040832707C4C207C18393E70701232066
:1023F000F7C4954723AEF18A1384C18BA947230202
:10240000F4005DB71387C18B83474700FD1793F72F
:10241000F70F2302F7008347470093F7F70FC9F739
:1024200037670040832707C4C207C183BD9BC2072B
:10243000C1832320F7C4994723AEF18A23A80186DC
:10244000A5B739713EDA2ED232D436D63AD842DC2C
:1024500046DE9387418222CC804326CA06CEAA84D8
:1024600009C41C4C99E3228515230C44541026867C
:10247000228536C6EF007016F2406244D2442161D4
:102480008280011126CA4AC806CE22CC4EC652C44A
:10249000AA842E8901C51C4D91E3CD299C4C804412
:1024A00099E32685E5219717000093876739631C18
:1024B000F402C0408357C400A18BB1C71C48A1C718
:1024C000FD59294A1C4483450900FD17B1E91CC484
:1024D00063DE07062286A94526857120FD5763081D
:1024E000F502294535A097170000938767376314D5
:1024F000F4008044C1B79717000093876732E31B4D
:10250000F4FAC04445BFA2852685312A55D97D55A8
:10251000F2406244D2444249B249224A0561828073
:102520001CC4050963D70700184C63CBE700638917
:1025300045011C401387170018C02380B70059B706
:10254000228626850D20E31F35F7D1B71C4013875F
:10255000170018C029472380E70061B7938741829D
:10256000AA85884339BF011122CC26CA4AC806CEA3
:102570004EC6AA842E89328401C51C4D91E33921AF
:10258000971700009387C72B6319F406C0401C4CB3
:102590001CC48357C400A18BC9C31C48BDCF1C48B1
:1025A00008409379F90F1379F90F1D8D5C48634644
:1025B000F500A2852685652C2DE51C440505FD1733
:1025C0001CC41C401387170018C0238037015C48C7
:1025D0006389A7008357C400858B81CBA947631605
:1025E000F900A285268561240DEDF24062444A85FA
:1025F000D2444249B249056182809717000093870F
:1026000027266314F400804459B797170000938776
:102610002721E31EF4F6C0449DBFA2852685212014
:102620003DDD7D59D9B741119387418226C284434C
:1026300022C44AC006C62A892E8489C49C4C99E3C8
:102640002685A926971700009387871F631CF4022D
:10265000C0400317C40093170701C18393F6870096
:10266000B5EE93F607019DEEA5472320F900136709
:1026700007042316E4007D55B240224492440249E7
:1026800041018280971700009387871D6314F4002F
:102690008044C1B79717000093878718E31BF4FAAB
:1026A000C04445BF918B8DC74C5889C993074404DA
:1026B0006384F5004A85352B232A04028357C4001E
:1026C0002322040093F7B7FD2316F4001C481CC016
:1026D0008357C40093E787002316F4001C4881EF5A
:1026E0008357C4001307002093F707286385E7008A
:1026F000A2854A8585218357C40013F7170005C7B3
:102700005C4823240400B307F0401CCC1C4801455E
:10271000A5F78317C40013F7070839DF93E7070409
:102720002316F40089BF898B014791E3584818C4E8
:10273000F1BF83D7C500011122CC26CA06CE4AC8F4
:102740004EC613F78700AA842E8471EFD841634DDB
:10275000E000B841634AE0000145F2406244D244DF
:102760004249B2490561828058547DD703A90400CB
:102770009396370123A0040063DD06067048835753
:10278000C400918B99C75C401D8E5C5899C33C4036
:102790001D8E5C540C50814626858297FD57035749
:1027A000C400631DF5009440F54763E8D706B707FA
:1027B00040208507B3D7D700858BA5C31C482322AB
:1027C00004001CC09317370163D80700FD5763143A
:1027D000F5009C4091E368C84C5823A02401ADDD6E
:1027E000930744046384F50026852121232A0402EB
:1027F000A5B70C500146854626850297FD572A86C7
:10280000E31FF5F69C40A5DF75476385E700594750
:102810006394E70423A0240181B7136707042316F8
:10282000E4007D551DBF83A90501E38709F203A9D3
:1028300005008D8B23A0350133093941014791E310
:10284000D84918C4E35A20F11C540C50CA864E864D
:10285000268582976349A0008357C40093E7070445
:102860002316F4007DBFAA993309A940E1BF9C4912
:10287000B9CF011122CC06CE2A8411C51C4D81E7A7
:102880002EC62922B24597170000938767FB639BEA
:10289000F5004C408397C50095C722856244F240FD
:1028A000056141BD97170000938787FB6394F5008E
:1028B0000C44CDB797170000938787F6E39CF5FC8F
:1028C0004C44C9BFF2406244014505618280014524
:1028D0008280411122C406C62A842316B50023171C
:1028E000C500232005002322050023240500232200
:1028F000050623280500232A0500232C0500214670
:1029000081451305C505EFD0BF8397170000938756
:1029100087B45CD0971700009387E7B61CD497174D
:102920000000938727BB5CD4971700009387E7BD0F
:1029300000D01CD8B240224441018280970500009B
:10294000938525F3A9A2411126C21306800693841C
:10295000F5FFB384C4024AC02E8922C406C69385FB
:102960004407252E2A8401CD23200500232225019A
:10297000310508C4138684068145EFD06FFC22859B
:10298000B240224492440249410182801C4DADE391
:10299000411106C622C497070000938767FA1CD529
:1029A000938741839C43232405042326050423287D
:1029B00005046314F50085471CCD2A841D2848C0F2
:1029C0002285052808C422852D2048C44840014698
:1029D0009145013708440546A545E53D484409466B
:1029E000C945C53D85471CCCB24022444101828087
:1029F000828041119387418326C284434AC006C620
:102A00009C4C22C42A8999E32685493793848404FF
:102A10008044DC40FD1763D607009C40B9CF84405A
:102A2000C5BF0317C40039E7C17785072322040611
:102A30002320040023220400232404005CC4232850
:102A40000400232A0400232C040021468145130599
:102A5000C405EFD0EFEE232A0402232C0402232422
:102A60000404232604042285B240224492440249ED
:102A7000410182801304840671BF91454A85E13586
:102A800088C051FDB1472320F9000144E9BF7971A5
:102A900022D44AD052CC56CA5AC85EC606D626D2CE
:102AA0004ECE2A8AAE8A130485040149054BFD5B8C
:102AB00009ECB25022544A8592540259F249624AB2
:102AC000D24A424BB24B4561828004448329440080
:102AD000FD1963D409000040E1BF83D7C400637BC4
:102AE000FB008397E40063877701A6855285829A6D
:102AF0003369A90093848406E1BF1971A6DAAE8414
:102B00008395E500A2DC86DE328463DC050083D792
:102B1000C40023A0060093F7070885E79307004049
:102B20001DA0300836C6EF00D023B246E34105FEB3
:102B30007247BD67F98F7977BA9793B717009CC230
:102B4000F1BF930700041CC0F6506654D6540145EB
:102B50000961828083D7C500011122CC06CE26CA26
:102B60004AC8898B2E8489CF930774041CC01CC863
:102B700085475CC8F2406244D24442490561828084
:102B800074003000AA84953FA2452A892685312207
:102B900001ED8317C40013F7072069FFF19B93E74A
:102BA00027002316F400C9B797070000938747D979
:102BB0009CD48357C40008C008C893E707082316AD
:102BC000F400A2475CC8B24791CF8315E400268584
:102BD000EF00D01B01C98357C400F19B93E7170096
:102BE0002316F4008357C4003369F9002316240127
:102BF00051B7DDC183A7C5FF411122C406C626C255
:102C00001384C5FF63D307003E94AA84EF00F01E2F
:102C1000938741879C4381EF2322040023AA818666
:102C20002244B2402685924441016F00301D637EEC
:102C3000F40014403307D4006396E7009843DC4364
:102C4000369718C05CC0D9BFBA87D84319C3E37D93
:102C5000E4FE94433386D700631F86001040B2968B
:102C600094C33386D700E31DC7FA10435843B29686
:102C700094C3D8C375B76375C400B1479CC04DB742
:102C80001040B306C4006316D70014435843B296ED
:102C900014C058C0C0C369B78280011126CA93848A
:102CA0003500F19806CE22CC4AC84EC6A104B147E1
:102CB00063F3F404B14463E2B4042A89EF00F0132F
:102CC0009387418798433A8439E0938781879C436F
:102CD00091E781454A85892F23ACA186A6854A853F
:102CE000A127FD5963193507B1472320F9004A850B
:102CF000EF00D01029A0E3D004FCB1471CC101456E
:102D0000F2406244D2444249B249056182801C408B
:102D1000858F63CF0702AD4663F6F6001CC03E9474
:102D200004C031A05C406313870223AAF1864A8560
:102D3000EF00D00C1305B4009307440061993307EA
:102D4000F5405DDF3A94898F1CC05DBF5CC3C5B799
:102D50002287404095BF130435007198E30285FC3B
:102D6000B305A4404A85C925E31C35FBB5BF1C4605
:102D7000FD171CC663DA0700184E63C5E700A947B4
:102D80006394F5006FF02FFE1C422E851387170009
:102D900018C22380B7008280011122CC26CA4AC8FB
:102DA0004EC652C406CE2A89AE893284B304D600F8
:102DB0007D5A63149400014509A8834504004E869A
:102DC0004A8575370504E31645FFF2406244D24454
:102DD0004249B249224A05618280357122CD26CB13
:102DE0004AC94EC706CF52C556C35AC1DEDEE2DC21
:102DF000E6DAAA89AE843289368409C51C4D99E386
:102E0000EFF0DFB897170000938787A3639BF40C5C
:102E100083A4490083D7C400A18BF5C79C48E5C7AC
:102E200093070002A304F1029307000302D22305D3
:102E3000F10222C6930B5002971A0000938A4AA40B
:102E4000054C294B4A848347040099C36390770F4C
:102E5000B30C2441638D0C00E6864A86A6854E8518
:102E6000253FFD576306F51E9256E69636D28347F8
:102E70000400638F071CFD571309140002C802CE1B
:102E80003ECA02CCA309010482D483450900154639
:102E90005685B92713041900C24759E913F70701EA
:102EA00009C713070002A309E10413F7870009C744
:102EB0001307B002A309E104834609001307A00227
:102EC0006380E608F2474A848146254603470400AA
:102ED00093051400130707FD6379E60AB5CA3ECED1
:102EE00085A8971700009387A7976395F40083A49C
:102EF00089000DB79717000093878792E39CF4F041
:102F000083A4C90001BFA6854E85EFF0CFF109D992
:102F10007D55FA406A44DA444A49BA492A4A9A4AEB
:102F20000A4BF65B665CD65C0D618280050421BFAE
:102F3000330555413315AC00C98F3EC82289B1B75E
:102F4000324793064700184336C6634907023ACE14
:102F5000034704009307E002631FF70403471400CC
:102F60009307A002631BF702B247090413874700C7
:102F70009C433AC663C107023ECA35A83307E04006
:102F800093E727003ACE3EC8E1B7B387670385468B
:102F90002E84BA9725BFFD57C5B7050402CA8146DE
:102FA000814725460347040093051400130707FDD6
:102FB0006376E606F1F2834504000D46171500001E
:102FC0001305858C312D11CD971700009387C78B82
:102FD0001D8D93070004B397A700424505045D8D3E
:102FE0002AC8834504001946171500001305058AF1
:102FF000130914002304B102E5233DC197D7FFFF55
:103000009387470095E74247B2471377071009CFE8
:1030100091073EC69257D2973ED22DB5B38767032C
:1030200085462E84BA97BDBF9D07E19BA107D5B702
:10303000780097060000938666D626860C084E8593
:1030400097000000E7000000FD572A8AE314F5FC12
:1030500083D7C40093F70704E39C07EA125555BDD4
:10306000780097060000938666D326860C084E8566
:10307000012AD9BF797156CA9C49BA8A984522D487
:1030800026D24ECE52CC06D64AD05AC85EC6AA899F
:103090002E84B284368A63D3E700BA879CC0034784
:1030A000340419C385079CC01C4093F7070281C7ED
:1030B0009C4089079CC00329040013796900631AA6
:1030C0000900130B9401FD5B5C449840998F634C9D
:1030D000F9041C408346340493F70702B336D0004A
:1030E000A5EB13063404D2854E85829AFD576303FF
:1030F000F5041C4011469840998B544481446397D1
:10310000C700B384E64063D3040081441C441848DC
:103110006354F700998FBE94014969047D5B6398FD
:103120002405014509A885465A86D2854E85829A8E
:10313000631E75017D55B250225492540259F249D2
:10314000624AD24A424BB24B456182800509ADBF0B
:103150003307D40013060003A301C7040347540434
:1031600093871600A2978906A381E7049DBF854631
:103170002286D2854E85829AE30E65FB050945B706
:10318000797122D426D24AD04ECE06D652CC56CA17
:103190005AC8B68983C68501930790063289AA84E6
:1031A0002E8413863504638DF60263E2D7069307F7
:1031B00080056387F61863EDD700638006229307C6
:1031C0003004638EF60A930A24042301D404C9A0B0
:1031D000930730066385F60A93074006E395F6FEEB
:1031E0001C40084393F6070893054500C5C61C41DB
:1031F0000CC363D807001307D002B307F040A30144
:10320000E404970600009386E66829476DA89307B3
:1032100000076383F61663E5D7029307E006638A27
:10322000F6189307F006E390F6FA0C401C4313F8E7
:103230000508138547006307080608C39C438DA84B
:1032400093075007E383F6FE93078007638AF6121D
:1032500093073007E399F6F61C43D04181459386E6
:10326000470014C383AA070056859D2E01C5330568
:10327000554148C05C401CC8A301040471A81C430C
:10328000930A2404938647009C4314C32301F40447
:103290008547D5B793F607041C410CC3B9DAC207BA
:1032A000C18781BF93F5050408C3C9D983D7070037
:1032B0001307F0066387E60E970600009386865D87
:1032C0002947A30104044C400CC463C50500084011
:1032D0006D9908C099E3B28A91CDB28AB3F5E7023D
:1032E000FD1AB69583C505002380BA00B3D5E70261
:1032F00063FFE70AA147631EF7001C40858B91CB53
:1033000058401C4863C7E70093070003A38FFAFEE9
:10331000FD1A3306564110C84E87CA867000A28532
:103320002685893B7D5A631E450B7D55B25022543C
:1033300092540259F249624AD24A424B4561828014
:10334000A382D504970600009386C6540C40084318
:1033500013F805081C411105630D080208C313F793
:10336000150001C793E505020CC04147B9FB0C40AD
:1033700093F5F5FD0CC0B1B79C4193E707029CC1E2
:1033800093078007A302F404970600009386C651B2
:1033900075BF13F8050408C3E30308FCC207C18323
:1033A0007DBF970600009386E64E214719BFAE8782
:1033B00035B794411C43CC4913F8060813854700E0
:1033C0006306080008C39C438CC301A808C393F696
:1033D00006049C43F5DA2390B70023280400B28A40
:1033E00025BF14485686CA8526858299E30F45F382
:1033F0001C40898B8DE7B2474844E359F5F23E857E
:1034000035B785465686CA8526858299E30F65F1CC
:10341000050A5C443247998FE345FAFEE9BF014A49
:10342000930A94017D5BF5B7411122C42A842E854D
:1034300023A2018E06C6EFE04FEBFD576317F500A0
:103440009387418E9C4391C31CC0B24022444101EA
:103450008280411122C42E848395E50006C6452250
:10346000634905007C48AA977CC8B24022444101C8
:1034700082808357C4007D777D17F98F2316F4006F
:10348000EDB783D7C500011122CC26CA4AC84EC663
:1034900006CE93F70710AA842E843289B68991C785
:1034A0008395E5008946014631228357C4007D7724
:1034B0007D17F98F2316F4008315E4006244F2406F
:1034C000CE864A86B24942492685D24405613DA846
:1034D000411122C42E848395E50006C6E128FD57DC
:1034E0000357C400631BF500FD77FD17F98F231602
:1034F000F400B2402244410182808567D98F2316AF
:10350000F40068C8FDB78395E50005A8411122C401
:103510002A842E85B285368623A2018E06C6EFE068
:103520000FD8FD576317F5009387418E9C4391C3D5
:103530001CC0B240224441018280411122C42A842D
:103540002E8523A2018E06C6CD20FD576317F500F8
:103550009387418E9C4391C31CC0B24022444101D9
:103560008280411122C42A842E85B28523A2018E35
:1035700006C6D120FD576317F5009387418E9C4303
:1035800091C31CC0B240224441018280411122C437
:103590002A842E8523A2018E06C66520FD57631757
:1035A000F5009387418E9C4391C31CC0B2402244D6
:1035B00041018280411122C42A842E85B28536863B
:1035C00023A2018E06C66120FD576317F50093877D
:1035D000418E9C4391C31CC0B24022444101828071
:1035E00093F5F50F2A966314C50001458280834741
:1035F0000500E38DB7FE0505FDB78280828041118D
:1036000022C42A842E85B285368623A2018E06C660
:10361000A920FD576317F5009387418E9C4391C302
:103620001CC0B2402244410182809307800523A23E
:10363000F18E7D5582809307800523A2F18E7D5502
:1036400082809307800523A2F18E01458280930733
:10365000800523A2F18E7D5582809307800523A2E9
:10366000F18E7D5582800000646174613A25630AA1
:10367000000000004D6F7573653A6C6566742062DA
:103680007574746F6E0000004D6F7573653A7269E2
:1036900067687420627574746F6E00004B657962A0
:1036A0006F6172643A4100004B6579626F617264C8
:1036B0003A4341500000000053797374656D436CC8
:1036C0006B3A25640D0A000055534244204B65793E
:1036D000626F617264264D6F7573652044656D6F0E
:1036E0000D00000075736220656E746572206C6F4A
:1036F0007720706F776572206D6F64650D00000034
:103700006C65617665206C6F7720706F77657220CD
:103710006D6F64650D00000009023B00020100A00E
:103720003209040000010301010009211101000117
:10373000223E000705810308000A09040100010375
:103740000102000921100100012234000705820353
:1037500004000A001201100100000008861AFFFE92
:10376000000101020001000005010906A101050791
:1037700019E029E7150025017501950881029501D9
:103780007508810195037501050819012903910246
:103790009505750191019506750826FF0005071925
:1037A0000029918100C0000005010902A101090161
:1037B000A1000509190129031500250175019503CB
:1037C000810275059501810105010930093109382A
:1037D0001581257F750895038106C0C02803430025
:1037E00048003300320020004B0065007900620081
:1037F0006F0061007200640026004D006F007500CC
:1038000073006500862300009A230000B0230000A7
:10381000BE230000DE23000004240000000000009E
:103820000000000000000000000000000000000098
:103830000000000000000000000000000000000088
:103840000000000000000000000000000000000078
:103850000000000000000000000000000000000068
:103860000000000000000000000000000000000058
:10387000000000000000000000000000232D302B9D
:1038800020000000686C4C006566674546470000F4
:103890003031323334353637383941424344454686
:1038A0000000000030313233343536373839616248
:0838B00063646566000000007E
:1038B80000000000010203040102030406070809CE
:1038C8001A0357004300480033003200000000008C
:1038D800000000000000000000000000781C00004C
:1038E800801C0000480E0000480E0000480E000032
:1038F800480E0000480E00007E1C0000861C0000D8
:10390800480E0000480E0000480E0000480E000057
:10391800480E0000481F0000901F0000321F0000E2
:1039280048220000D6210000441F0000341F000078
:10393800822100008A21000092210000000000007E
:1039480008000000683700003E000000A8370000AB
:103958003400000070010020040000007401002001
:1039680008000000DC3700002800000010000020DC
:103978001A000000480E00000E1F0000480E00004C
:10398800480E0000480E00002C1F0000480E0000E2
:10399800241F00001C1F0000000000003C3800002D
:1039A8005C3800001C380000000000000000000027
:1039B80000000000000000000000000000000000FF
:1039C80000000000000000000000000000000000EF
:1039D80000000000000000000000000000000000DF
:1039E80000000000000000000000000000000000CF
:1039F80000000000000000000044950802040608CA
:103A080030020020183700003B0000005437000047
:103A1800120000000501000001000000E80000207D
:103A2800040309040803570043004800E800002085
:00000001FF
