:100000006F00F0191300000013000000130000003F
:100010001300000013000000130000001300000094
:100020001300000013000000130000001300000084
:08003000130000007300100032
:100038000000000000000000E8010000EC010000E2
:100048000000000036090000000000000000000069
:10005800380900003A090000000000000000000014
:100068003C090000000000003E09000000000000FC
:100078004009000042090000440900004609000048
:10008800480900004A0900004C0900004E09000018
:1000980050090000520900005409000056090000E8
:1000A800580900005A0900005C0900005E090000B8
:1000B8006009000062090000640900006609000088
:1000C800680900006A0900006C0900006E09000058
:1000D8007009000072090000740900007609000028
:1000E800780900007A090000EE0100007E0900008E
:1000F80080090000820900008409000086090000C8
:10010800880900008A0900008C0900008E09000097
:100118009009000092090000940900009609000067
:10012800980900009A0900009C09000000000000DE
:080138000000000000000000BF
:100140003D432A876373C3029377F700BDEFADE5A4
:10015000937606FF3D8ABA960CC34CC30CC74CC7B6
:100160004107E36BD7FE11E28280B306C3408A06E3
:100170009702000096966780A6002307B700A306A3
:10018000B7002306B700A305B7002305B700A304F3
:10019000B7002304B700A303B7002303B700A302EB
:1001A000B7002302B700A301B7002301B700A300E3
:1001B000B7002300B700828093F5F50F9396850072
:1001C000D58D93960501D58D61B79396270097023B
:1001D000000096968682E78086FA9680C1171D8F6A
:1001E0003E96E374C3F8A5B77300203001A01387CF
:1001F00081811C43C16637150040B69785451305BC
:1002000005801CC33DAD0145828001118545114526
:1002100006CE22CC02C202C423160100B52B9307DE
:10022000F008371400403EC2C167FD174C001305AB
:1002300004803EC449230546130504808545FD23FB
:10024000130504808545F52B130504808545D923C6
:10025000B7E700E0130700F82387E742F240624463
:10026000116723A2E7100561828037150040411114
:100270001305058006C6E123938781819C43B24024
:100280003E95410182801D71094586CEA2CCA6CA49
:10029000CAC8CEC6D2C4D6C2DAC029219924716593
:1002A00013050520AD2497070020938727DF8C4393
:1002B00017750000130585830144EF00F06DB13719
:1002C0006D371775000013056583EF50106C1779B3
:1002D000000013092923977A0000938AEA82F149E2
:1002E0006D4A93040031B30789008C235685EF00D3
:1002F000B06AB3673403639547012945EF50B0589E
:100300000504E31294FE3146976500009385457C11
:100310004800EF5030343146976500009385057CE6
:100320000808EF5030331775000013052587EF00DC
:10033000D0689775000093856586180897060000B9
:100340009386A6EC01462810EF10000AAA8501C981
:10035000176500001305C57BEF00106401A01408A9
:10036000500089452810EF10E012013770080C0882
:10037000AA842810EF10E01C2A84C53D058DEF509B
:10038000007697670000938727768C43EF40704D87
:10039000EF50D0012A86AE86176500001305457917
:1003A0009765000093854578EF00105F7D3D2DE84F
:1003B00092547D5993090000176B0000130B8B7842
:1003C000A94A8840EF50807E2A86AE865A85A2854B
:1003D000EF00905C03AA0400CE855285EF40907335
:1003E0006354A0002289D28905049104E31B54FDC3
:1003F0004E85EF50A07B9317290097060020938627
:1004000066C0BE9690422A87AE8717650000130526
:100410002574CA85EF0050582810EF1020053DBF05
:10042000A2851765000013052576EF00F056EDB79D
:10043000B71702409843B706FFF81367170098C331
:10044000D843758FD8C39843B706F7FEFD16758F4E
:1004500098C39843B706FCFFFD16758F98C3D84321
:10046000B70681FFFD16758FD8C337079F0098C761
:10047000D843719BD8C3D843318B75FFB746024030
:1004800003A706801367070123A0E680D843B706B9
:10049000C1FFFD16D8C3D843D8C3D843136707405C
:1004A000D8C3D843758FD8C3D843B7063C00558FFF
:1004B000D8C39843B7060001558F98C3B7170240B9
:1004C000984393166700E3DD06FED843B716024053
:1004D00013672700D8C32147DC42B18BE39EE7FEB8
:1004E000828097070020938767BB9C4337177A0069
:1004F00013070720B3D7E70293F7F70F238FF18095
:100500001307803EB387E702239EF18082807971D2
:1005100022D42A8411658545110506D6B92C930786
:1005200000207C82371501408D473EC44C00E147D6
:10053000130505803EC6452022C837440140B70751
:1005400008000C08130504803ECC02CA231E0100DB
:10055000FD2C1305048085454D2EB2502254456173
:100560008280011126CAB744014022CC4AC84EC637
:1005700006CEAE893289014493840480634A240103
:10058000F24062444A85D2444249B24905618280C0
:10059000930500042685492E65DDB3878900838590
:1005A000070026850504C205C1819D2EC1BF938722
:1005B00041809C43138741593E95636CE5001727A2
:1005C0000020130727A46366A70023A2A1803E850D
:1005D0008280FD57EDBF9C4513F7070113F8F70024
:1005E00001C7D8413368E800371701406315E500BB
:1005F0009A2135839AA18E2113F7F50F39C318413B
:100600008146854E3D4F930F800293028004214E18
:100610003396DE00B3F8C5006311160393982600E5
:1006200033131F011343F3FF3377E300B3181801AB
:1006300033E7E800639FF70550C98506E39AC6FDD6
:1006400018C11307F00F6375B70454412146854E56
:100650003D4F930F800293028004414EB398CE0029
:1006600033F715016392E8021317260001173313BD
:10067000EF001343F3FFB376D3003317E800D98EAE
:10068000639DF701232A15010506E319C6FD54C130
:100690008280E39457FA10C94DB7E39757FE232899
:1006A0001501DDB723A0A1828280371702405C4389
:1006B0009146B18B6384D706A1466386D706B717E8
:1006C0007A00938707201CC1371602405C429706C8
:1006D00000209386A6959183BD8BB69798231C41E5
:1006E000B3D7E7005CC1584221831D8B369718238E
:1006F00033D7E70018C558422D831D8BBA96982230
:1007000093868180B3D7E7005CC5584239830D8B4F
:1007100036971823B3D7E7021CC98280B727F400A5
:10072000938707404DB75C435843C166C983BD8B6F
:10073000758F8907C5466393D700C9471DE33747BF
:10074000024003270780418B11C737177A00130730
:10075000072029A037173D0013070790B387E7024A
:100760009DB73717024058439316E700E3CF06FCC6
:100770003727F40013070740D5B799C5371702404C
:100780001C4F5D8D08CF8280B7170240984F1345EC
:10079000F5FF798D88CF828099C5371702405C4F6D
:1007A0005D8D48CF8280B7170240D84F1345F5FFC3
:1007B000798DC8CF82801E2137370140130707C0CB
:1007C000C207C1836304E502370700406300E50206
:1007D00013070740630CE5003717004093060780B6
:1007E0006306D500130707C06316E500BA2193F727
:1007F000F7F8D98F1EA1DE215EB59E211EB5B73751
:100800000140938707C06314F5009C251EB98547F6
:100810005EA982801E2189C593E717001EA18280F0
:10082000C207C183F99BC207C183CDBF5E2501C644
:10083000DD8D4EA5828093C5F5FFFD8DDDBF4A316C
:10084000828093C5F5FFC205C1810EA98280162959
:10085000F577FD17F58FF621397122DC06DED58F8D
:10086000DA251EA95625FD779387379FF58FD62168
:100870002A842EC6D58F9625D58FB625D58F5EA511
:100880005E29C207C18393F7F7CFD98F5EA96808A5
:10089000293DB747014093870780B245631BF404A5
:1008A000A25756246547B387E702C206C18698411E
:1008B00063D30604060752244206B3D7E7021307A0
:1008C00040064186B3D6E702B3F7E70292066356C5
:1008D00006028E0793872703B3D7E70213F7770043
:1008E000B367D700C207C1831EA4F25062542161CE
:1008F000828092577DB70A077DBF920793872703AF
:10090000B3D7E702BD8BD58FF1BF91C55E250967CF
:10091000D98F5EA582805A25F977FD17F98FD5BF4B
:1009200093F5F51F4EA182800A216D8D3335A0000D
:10093000828001A001A001A001A001A001A001A04E
:1009400001A001A001A001A001A001A001A001A09F
:1009500001A001A001A001A001A001A001A001A08F
:1009600001A001A001A001A001A001A001A001A07F
:1009700001A001A001A001A001A001A001A001A06F
:1009800001A001A001A001A001A001A001A001A05F
:1009900001A001A001A001A001A001A001A0970158
:1009A00000209381A1EF172100201301A1E5177505
:1009B00000001305254F97F5FF1F9385A564138647
:1009C000818163FAC5008322050023A0550011052B
:1009D0009105E3EAC5FE13858181938541596377CB
:1009E000B500232005001105E36DB5FEFD427390AF
:1009F00002BC8D42739042809302800873A0023043
:100A000097F2FFFF9382826393E232007390523039
:100A1000EFF01FA297020000938222877390123496
:100A200073002030011106CE2EC615CD1841AA87BD
:100A300005C358417D5511CB8546631BD7009847A8
:100A40002300070023A207000545F24005618280CC
:100A50009847B2462300D7009847050798C7D84360
:100A60007D17D8C3D5B705466C00E53CF1BF797159
:100A700022D426D24ECE52CC56CA06D64AD05AC816
:100A80002A8AAE8A328481449309000263440602B2
:100A9000B3879A00838707009DE363D6840263D2FD
:100AA000E402198C93F726009309000281C719E329
:100AB00093090003858A01499DE6228929A88504B6
:100AC000C1BF058CC5B70144F1BFCE8552853AC67A
:100AD000913F32477D19E34A20FF22896353040086
:100AE00001493304244163CBE402CA84B38724411F
:100AF000D697838507009DED2289634120056353C6
:100B00000400014433059400B25022549254025917
:100B1000F249624AD24A424B45618280B30497400F
:100B2000268B9305000352857D1BED3DE31B0BFED9
:100B3000269965BF5285FD3585044DBFCE8552850A
:100B4000D5357D195DBF5D71A6C252DC86C6A2C4D3
:100B5000CAC04EDE56DABA843E8A9DE1930700038E
:100B60000147D28626862C08231CF1000937B6409F
:100B7000264496440649F259625AD25A61618280EB
:100B80002A893684C68A91CAA94701446317F600A8
:100B900063D50500B305B0400544A30701029307E0
:100BA000F102A546130568FC33F7C50263D3E600DE
:100BB0002A9713070703A38FE7FE9389F7FF33D71D
:100BC000C50263F7C50401CCB9C413772A0021C755
:100BD0009305D0024A8542C6B1353248FD14937759
:100BE0004A0099CF93071006930500034A85631CBA
:100BF000F8020D3D930580074A852D350904F91447
:100C00005687D2862686CE854A859535229585B724
:100C1000BA85CE8751BF1307D002A38FE9FE0144E6
:100C20009389E7FF6DBFFD3B93058005F1B71D710B
:100C3000CAC8CEC6D6C2DAC03A8986CEA2CCA6CA67
:100C4000D2C45EDE62DC66DA6AD86ED633E7C500EF
:100C5000BE89AA8A428B8347010639E38DCF8D670F
:100C60009387D7022314F100230501000147DA8698
:100C70004E862C005685E53BF6406644D6444649F0
:100C8000B649264A964A064BF25B625CD25C425DEC
:100C9000B25D25618280930700032314F100F9B748
:100CA000368AAE84328463000902A9470149639CF5
:100CB000F600635A0600B304B040B3379000330423
:100CC000C0401D8C0549A30F0100130DF101935D78
:100CD000FA41A54C138C68FC5286EE862685A285C7
:100CE000EF10906963D3AC00629513050503A30F61
:100CF000ADFE5286EE862685A285930BFDFFEF1092
:100D0000302E6366B40163988D0263F64403630C6E
:100D100009006386090293772B0095C39305D002DF
:100D200056850933FD190147DA864E86DE855685DC
:100D30003D3B4A9591B7AA842E845E8D71BF93077F
:100D4000D002A38FFBFE0149930BEDFFE9BF1D719C
:100D5000CEC6B289A2CC01462A84A6CACAC8B68425
:100D60002E8981462E85CE8586CE3ACE42CCD2C4FF
:100D7000D6C23E8AC68ADAC05EDE62DC66DA6AD82D
:100D80006ED6EF207071135BF501CE854A85EF308A
:100D9000904F72476248AE8CBA87AA850547D688BD
:100DA000A68666862A8C5AC0228551352A8D9305DF
:100DB000E00222858539050D8147854D814B294704
:100DC00063CE47076285E685EF30B0572A86AE8648
:100DD0004A85CE85EF3020432A89AE896E85DE852F
:100DE000EF3030562A86AE864A85CE85EF203076A3
:100DF000EF30704913D6F541318DB347B600B305D6
:100E0000C5403335B5003386C7405AC0D688D2872F
:100E1000A686098E094822850547113DF64066449D
:100E20006A95D6444649B649264A964A064BF25B2D
:100E3000625CD25C425DB25D25618280B30677035D
:100E40008507B33BB703B30DB703B69B95BF5D7181
:100E50005AD8378B0000A2C4A6C2CAC04EDE52DCEC
:100E600056DA5ED662D486C666D2AA892E893284C4
:100E7000014A8144930B5002930AB002294C130B90
:100E8000CB828305090085E56385090081454E8590
:100E9000513EB6402644268506499644F259625A88
:100EA000D25A425BB25B225C925C61618280638752
:100EB00075014E85853E85040509E1B78307190054
:100EC000930C190063997701930550024E85993E62
:100ED00085046689D5B7CDDB6387570563C8FA00FB
:100EE000130730026384E704814705A01307D0028B
:100EF000638AE70013070003E398E7FE930C2900D9
:100F0000894721A0930C2900854703870C006303C0
:100F1000570563C1EA0293063002630BD702668964
:100F20000145A54535A8930C29007DBF930C2900E8
:100F30009147E1BF9306D0026309D70093060003EF
:100F4000E31FD7FC93E7270031A0850C8547C1BF7D
:100F500093E74700850CE1B733058503050936950E
:100F600003070900930607FD13F6F60FE3F6C5FE27
:100F70001306E0029946631EC7000509814625460F
:100F800003070900130707FD9375F70F6375B60292
:100F9000368A030709001306A0066309C70A6341DE
:100FA000E6021306C0046303C70A1306800663083B
:100FB000C70801461DA8B38686030509BA96C9B7B6
:100FC000130640076304C7081306A0076300C70899
:100FD0009305C0060146631AB700830519000D4644
:100FE0006394E50005091146050903070900930507
:100FF00000061308100663C4E500130810049305E7
:10100000700663C2E506930550066356B71693054E
:10101000700463CFE50213065004635EC7149306A1
:101020003004E31BD7E81840930C4400A30E0100E2
:10103000230EE100BE8601472A866C0871A0830555
:1010400019000146E393E5FA090945B7050995B783
:1010500093063006E309D7FC63CDE60693068005C8
:101060006303D70291BD930630076306D70463CDAF
:10107000E6029306F0066308D70C9306000793E791
:101080004700E31BD7E211476318E60A1D041377F4
:1010900084FF0C43504313048700C28802C03E887B
:1010A0000147AA87C146B1A0930650076300D7063F
:1010B0009306800775B71840930C4400DA8511C376
:1010C000BA855287BE862A864E855532AA94668492
:1010D000E5B311476313E6021D04137784FF0C4345
:1010E000504313048700C28802C03E880547AA8780
:1010F000A9464E852D3EAA94C1B30C40D288110456
:101100002A87854629464E853D3CF5B71147631F22
:10111000E6001D04137784FF0C435043130487003B
:10112000C28802C03E880147AA87D9B70C40D2883E
:1011300011042A878146F9B70C40D28811042A8706
:1011400081464146C9B711476310E6021D04137773
:1011500084FF0C43504313048700C28802C03E88BA
:101160000147AA87A14671B70C40D28811042A878B
:101170008146214649BF1D04137684FF130486006F
:101180000C4250423307D540C2887D173E884E85B9
:10119000B687A9466D3E85B739712ED232D4AA855D
:1011A0005010014506CE36D63AD83EDA42DC46DE4D
:1011B00032C67139F240216182801D71A6CAAA84AB
:1011C000176500001305857186CECAC8CEC6D2C485
:1011D000D6C2DAC05EDE62DC66DA6AD86ED6A2CC2F
:1011E000EF40B07ACC209767000093876766176559
:1011F00000001305A57313972500BA979043138930
:1012000004048149513FCC30176500001305457334
:10121000014B5937B6249224EE20176500001305C0
:101220002573014A953FBA2C962CF228CE281765D3
:1012300000001305A574154C8537BA309630F22C92
:10124000CE2C1765000013052575977C0000938C44
:101250002C8A99379048CC44176500001305C57552
:10126000976B0000938B4B5D053F176500001305DE
:10127000E576EF409071176500001305E579EF40C2
:10128000D070EE28922CB62C176500001305857CD3
:101290003387C502194D977D0000938DED86977AAF
:1012A0000000938AAA803307D702FD351763000038
:1012B0001303437DBE2463C0F9089C48C8441764E7
:1012C00000001304A4603E95EF3060751040544058
:1012D000EF20F0272ACC5A852ECEEF30206D97676D
:1012E00000009387275F9043D443EF20C0342AC87F
:1012F00052852ECAEF30806B10405440EF203025CD
:101300006248F2484247D2472A86AE8617650000F7
:101310001305457A51350145F6406644D6444649A1
:10132000B649264A964A064BF25B625CD25C425D45
:10133000B25D25618280035609006365CC0A83563D
:10134000A9010357C9010A063385CC00B385E6021B
:101350000328490008418357E9013305A8403308B1
:101360007601032808002A9A5E98B385F502028860
:1013700003440903034819033304B4023304040388
:1013800003586901330404032EC22AC06E968328D1
:10139000C900032889001042CE851A85F53BA28535
:1013A0005685DD3B83274900229B85093E991763BB
:1013B00000001303236DFDBD0354290103584901A7
:1013C00075BF035469013304F4027DBF3384A7035E
:1013D00065BF03440903034819033304B4025DB72E
:1013E00001445DB715450DBF411122C42A848841CF
:1013F000B747495806C626C24AC09387D714631513
:10140000F506DC21214581EF0CC054C03A89AE8439
:1014100029E6C845EF40D02208C401E91145B24091
:101420002244924402494101828085471EA888488F
:101430000DC9EF40F02048C475D1938704045CC8FF
:10144000231904003146938544014A85EF409020DA
:101450001C4401452324F900D9B710C42318040003
:10146000F9B723260400D1BF094555BF1E294111F4
:1014700022C406C62A8481C70845EF40101D48448F
:1014800011C52244B24041016F40301CB240224499
:101490004101828079715E2226D2262206D622D48C
:1014A000B384F4027E224AD04ECE52CC56CA5AC8D9
:1014B0005EC6B384F40285476388F500894763807C
:1014C000F5081C469CC619A81C413689328483AA9B
:1014D000070603AB47068149639E9900B250225428
:1014E00092540259F249624AD24A424BB24B0145E8
:1014F000456182801C4413972900D685BA9788439A
:10150000032A8900EF30F035AA8B5A85EF40C0508E
:10151000AA855E85EF30407E4E9AEF40C049230099
:10152000AA00850955BF0C469846BE958C213E976A
:101530008507938505F80CA3E39797FE45B7814788
:10154000E5BF717126D356CBAA84B28AA80831466A
:101550004ECF52CD5AC95EC706D722D54AD162C5F1
:1015600066C36AC1EEDEEF40F00E9C402399040092
:10157000814993870704DCC8154B176A0000130ADA
:101580002A5AB14B9840BE283A2763E2E702014548
:10159000BA502A549A540A59FA496A4ADA4A4A4BC2
:1015A000BA4B2A4C9A4C0A4DF65D4D618280C04878
:1015B00003A9840091CB1C44214693050401CA97DA
:1015C000A808BED0EF4010095C442146C8103E99DF
:1015D000CAD613098401CA85EF40D0071E20636E66
:1015E000FB148A07D29798435C54529702870345AD
:1015F00014037444304483483403034824030347EA
:1016000004033ED81C54A29622963ED65C503ED48B
:101610001C503ED26C40A2952ED05C5CCC103ECECD
:101620008347B4033ECC8347A4033ECA8347940355
:101630003EC8834784033EC67E383EC48347540376
:101640003EC2834744033EC0AA87A808CD2829F19B
:10165000DC4081C7A285268582973E209DC3B38C3E
:1016600079032146CA85D69C6685EF40A07E9C40C2
:1016700083AD8400D8335C443DE7BE9D23A4BC0108
:1016800085095840DC48BA97DCC8BE288507BEA843
:10169000D5BD185454501050CC10A808EF001010AD
:1016A0007DB70C501858145C5058832884020328C6
:1016B000440222973EC0A296AE872296CC10A8087C
:1016C000EF00301969B7185454501050CC10A808C6
:1016D000EF00702DADBF185454501050CC10A80816
:1016E000EF00503FADB75A2C035CA401014D330C01
:1016F000EC027A2C330CEC023309FC006E991D09C4
:10170000137989FF63158D0123A42C0195BFB3863E
:10171000A701EE9603850600545413172D004A972F
:10172000158DBAC6BEC4EF40202F0C54050DEF3006
:10173000D0463647A64708C3F1B7154591BD357168
:1017400052C56A5E2A8A5A55EAD88A5E336EC50146
:101750004A553A5D4EC7336EAE00DEDEE6DA06CF9E
:1017600022CD26CB4AC956C35AC1E2DCEED6054586
:101770009A5CAA59FA5B336EAE01E39FAE001D4539
:101780006397DC11954E0D4563C33E11B30AF70212
:10179000E54E254563CD5E0F63999A01333EC00146
:1017A00033EECB010D4563140E0E3A84176700002B
:1017B00013078738084346DAAE8483586A0003DC8F
:1017C000650003A98500BE4546CC42D83E8B36CA8B
:1017D00032C8EF301009EF40001EE2482AC6138ECF
:1017E00001190147976D0000938D4D3563488703BC
:1017F0000547638EEA06A28E63530400814EB38FC1
:101800001E03014E01450147138FC18263586E3B91
:1018100093162500FA96BA85014669A68E47931657
:10182000270072D4BE96884246D23AD0EF400038A4
:101830002A86AE8603A50D0083A54D00EF10B05F8C
:101840002ACC1E452ECEEF4060366243F2432A86F4
:10185000AE861A859E85EF10105EEF30A00E225ED8
:10186000025792582320AE000507110E41B7CE470C
:1018700013981800014C93F7F70F814B854C0D4DD1
:10188000930D00603ECCBE2063C7FB300145FA409B
:101890006A44DA444A49BA492A4A9A4A0A4BF65BE8
:1018A000665CD65C465DB65D0D618280035E4A0073
:1018B00083576A005244330E8E0393830119814E7D
:1018C0005A9EB307FE02032E8A003E9EC247B38291
:1018D00017013E839D47B387C7413ED0FE20FD17C9
:1018E00063C2FE029D47338FC741FE2063C6FE1AC6
:1018F000C257850A3E9BDE20E3CAFAFAD257850B0F
:101900003E9C51B713FF88FF1A85968572868147E2
:101910008146025732976361E70763631F131840DC
:10192000BA9603A70300A206B3C6E602638E991314
:101930006380A9153247B306D7026247C186BA96BB
:101940002300D9005840BA9703A74300A207B3C7A2
:10195000E702638799136389A9133247890E09093E
:1019600042932104A103C292B307F7026247C187E1
:10197000BA97A30FF9FE9DB7830F06000307050072
:10198000210621053307F703A105BA96038785FFD2
:10199000B30FF703030795FFFE97830F96FF3307F7
:1019A000F703BA96038795FFB30FF7030307A5FF65
:1019B000FE97830FA6FF3307F70336978386A5FFAD
:1019C000B38FF6038306B5FFBE9F8307B6FFB386CA
:1019D000F602BA960387B5FFB307F7020307C5FF00
:1019E000FE97830FC6FF3307F703BA960387C5FF39
:1019F000B30FF7030307D5FFFE97830FD6FF330717
:101A0000F70336978386D5FFB38FF6038306E5FF8A
:101A1000BE9F8307E6FFB386F60236978386E5FF0F
:101A2000B387F6028306F5FFBE9F8307F6FFB386F2
:101A3000F602BA960387F5FFB307F702FE97D1BD0A
:101A40003307EE01030607003307E301030707002E
:101A50003307C702BA963387E20103070700050F71
:101A60003307C702BA9755BDE3D606EC8146D9B510
:101A700063D306008146E3DFDDEA930600605DBDC7
:101A8000E3DD07EC8147D1BD63D307008147E3D68F
:101A9000FDEC93070060D1B593F588FF1A86F286B6
:101AA00081473307DF006361B70463ED150BD2464E
:101AB00013972E00BA969442B697938601193697DB
:101AC0001443A207B3C7D702638B990B638DA90B8D
:101AD000324705094693850EB307F7024E47C18783
:101AE000BA97A30FF9FE11B5030706000385060098
:101AF000830F4600A1063305E502038796FF210602
:101B0000AA97030596FF3305A7020387A6FFAA97A6
:101B10000305A6FF3305A7020387B6FF3E9583079B
:101B2000B6FFB307F7020387C6FFB30FF703AA9701
:101B30000387D6FF0305D6FFB382FF003305A70254
:101B40008307E6FF0387E6FFB307F702B30F5500ED
:101B50000387F6FF3385F7018307F6FFB307F70224
:101B6000AA9781B73307BE00B306B3000307070087
:101B70008386060085053307D702BA973DB7E3D9B8
:101B800007F48147B1B763D307008147E3D2FDF47F
:101B90009307006035BF014B814AB1BB8CC205067B
:101BA000C6959106E34C86FE83564A007E9776954D
:101BB000818EB3861603050E369789B963930B00A1
:101BC000C68CB38D5C03639C0B066EDE66D69317E2
:101BD0002400330CA0416AD43EDC02CC17E8FF1F7E
:101BE0001308C854BE206247E352F7CAA257135DD8
:101BF000FC411387C182337DFD00DA5702D03ED20B
:101C0000B30CF040B307A403C297BEC2E257B38738
:101C1000A703BA97BEC09357FC01BEC4B3078B019C
:101C2000BEC6DE2002576341F702E24752578507DE
:101C30003ECCD2573E9CA257998F3ED465B7B3078E
:101C40005C0362D63EDE61B7A64613D6FC0103579D
:101C50002A003696B64683574A00B326D7003696F2
:101C6000B3069401B3A6D7003696B3868703B3852F
:101C7000960183566A00B386D50283258A00AE9604
:101C800025E697E5FF1F9385654A814736873256DB
:101C900063CAC704A5476380FD0E424E814797E89B
:101CA000FF1F9388A8489D4E054F8D4F93020060FB
:101CB00015AC131526009388C182469508413A95C4
:101CC000830805003385C500050623001501E3429E
:101CD00056FF85073E8763840B0033C7770336972B
:101CE000D69575B70146E5B7125613D3FC413307B5
:101CF00087413373C3006353EB005A87B38797411F
:101D00006353F400A2877256AE4542859ACEB6CC94
:101D1000BECABAC8EFE0CFC2E64696484647D647A5
:101D200076432A88B68501463255E355A6F6468F96
:101D3000864E6A8E25A0931F2500F69F83AF0F0065
:101D4000AE9F83820F00B30FAF00050523805F00B5
:101D5000E343F5FE6255050E229FAA9E634BEE00FB
:101D60000506B28563840B00B3457603B695D69815
:101D700065BF1A85F1BFE3820BF24247014697E740
:101D8000FF1F9387A73A05458D4813030060EE2097
:101D9000B306C900634CB60082574257368985079F
:101DA0003ED09257BA9C998F3ED2A5BD038F0700B3
:101DB00083060700830E170083052700B30FDF0299
:101DC00083861700131E2600B38ED6038386270052
:101DD000B385B602338FDF0183863700830F370068
:101DE000B30EBF00B38FF603030F4700838647008F
:101DF000338FE603B385FE0183865700830E5700B9
:101E0000B38FE501B38ED603830567008386670031
:101E1000B385B602338FDF0183867700B30EBF0030
:101E200083057700B385B60283868700F695830E17
:101E30008700B386D603B695D246F29683AE0600E7
:101E400093860119369EF695832E0E00A205B3C522
:101E5000D5036381A90263831903324EB306C90017
:101E6000D69705062507B305BE024E4EC185F295ED
:101E70008CA231BFE3D305FE8145C5B763D305000E
:101E80008145E35CB3FC93050060C1BF13F58DFF92
:101E9000F28546860147B3831E41B386C30063E9DA
:101EA000A6046362B50D52469396270036961042FB
:101EB000329713860119B296904222073347C70220
:101EC0006380E90D6382F90D3246B306F9003307EA
:101ED000E6024E464187329798A263830B00D6985C
:101EE00085076E9EFA20B306F900E3C1E7FA6DB5E7
:101EF0008386050003030600A10521063303D302F0
:101F0000830696FF1A97038395FF33836602830641
:101F1000A6FF1A970383A5FF338366028306B6FFE5
:101F20003A930387B5FF3387E6028306C6FF1A9705
:101F30000383C5FF338366028306D6FF3A93038784
:101F4000D5FF3387E6028306E6FF1A970383E5FF92
:101F5000338366028306F6FF3A930387F5FF3387E0
:101F6000E6021A971DBFB386A8003306AE0083862B
:101F70000600030606000505B386C602369715B7A8
:101F8000E35407F4014789B7635307000147E3DDD2
:101F9000E2F2130700600DBF1D45D5B8797122D458
:101FA00026D24AD04ECE52CC56CA5EC606D65AC8A3
:101FB00062C4AA84AE8B3289B68ABA893E8A014449
:101FC000EFE0AFAA03D66B00634FC400B2502254B7
:101FD00092540259F249624AD24A424BB24B224CC5
:101FE000014545618280D6209C44BA203383C602D5
:101FF000A2978145014563CBE50403AB8B00229B8F
:1020000005043307D7023345E50233055541EF3068
:10201000B020CA85EF306038CE85EF3080042A8C3E
:102020005285EF30701FAA856285EF20F04CEF30AB
:1020300090182300AB0079B7038E08000508B2980A
:102040007295E34BD8FE9A97850575B7BE8801480F
:10205000CDBF397126DAAA8422DC4AD84ED652D4B2
:1020600056D25AD05ECE62CC66CA06DE6AC86EC64A
:10207000AE8B3289368BBA893E8AC68AEFE0EF9EF4
:1020800003AC84009D4C0144B38C8C4183D76B001E
:102090006342F402F2506254D2544259B259225A65
:1020A000925A025BF24B624CD24C424DB24D01450A
:1020B00021618280F220E2878145B306860213788F
:1020C00086FFCA9636873385FC0063660505636F15
:1020D000C80A93172400DA97884303AD8B002E9526
:1020E000EF309013D285EF30402B83A50900229D5D
:1020F0000504EF30802AD685EF20B076AA8D0645FC
:10210000EF309011AA856E85EF20103FEF30B00AB6
:102110002300AD00A5BF8308070003850700210742
:10212000A10733051503830897FF2E95838597FF35
:10213000B38515038308A7FFAA950385A7FF330579
:1021400015038308B7FF2E958385B7FFB385150365
:102150008308C7FFAA950385C7FF330515038308C6
:10216000D7FF2E958385D7FFB38515038308E7FF37
:10217000AA950385E7FF330515038308F7FF2E951E
:102180008385F7FFB3851503AA9535BFB3070C0107
:102190003387060183870700030707000508B38715
:1021A000E702BE952DB7397122DC26DA4ED6AA8415
:1021B00052D456D25AD05ECE62CC66CA6AC86EC6B7
:1021C000AE8ABE8B06DE4AD8B28C368D3A8BEFE0F3
:1021D000CF89976700009387E79683AD840083A932
:1021E0008A0003DA640003AC07000144634144053C
:1021F0004E84014A13090000176D0000130D0D9560
:10220000FE20634EFA040144FE20634AF408F250B3
:102210006254D2544259B259225A925A025BF24B3A
:10222000624CD24C424DB24D014521618280B38750
:102230008D00038507003305A541EF30E07DE6857D
:10224000EF30A01593172400CE9788C3E2852A8922
:10225000EF30400C6353A0004A8C050441BF084096
:10226000E285050AEF30A03C08C0EF303014AD2005
:10227000EF30901EAA85AA8C4A85EF20F0272A8984
:102280006685EF30B01203260D0083264D00110441
:10229000EF107077EF30501C232EA4FE95B79317E4
:1022A0002400CE978843CA8503AA8A00EF20705B7A
:1022B000DA85EF20105B2A8C5E85EF30E075AA8509
:1022C0006285EF207023229AEF30E06E2300AA008F
:1022D00005041DBF014582805D71A2C4A6C2CAC0AB
:1022E0004EDE52DC86C6138AC1802A84AE84FD206D
:1022F00003270A00FD572A89AE89630EF70222855B
:10230000A685F1210DC9976700009387A7849043A4
:10231000D4432285A685EF10500D6344A00897672B
:1023200000009387A7849043D4432285A685EF10AD
:10233000B016634C0500B64026444A85CE859644C7
:102340000649F259625A61618280914703270A0067
:102350003EC4976700009387E7813EC602D422CC33
:1023600026CE22C826CA02D002D289476305F702C8
:102370002800AD210DC1A257A9EF0259925965BF9E
:10238000975600009386067E9042D442094732D089
:1023900036D2E39FE7FCEF30302A930720021CC1BE
:1023A000D9BF0D4783270A003AC417570000130707
:1023B000677C3AC602D422CC26CE22C826CAE9F3CC
:1023C00097570000938787799843DC433AD03ED2F1
:1023D00045B7EF307026A2571CC145B77971939766
:1023E00015003737864022D426D24AD006D64ECEA4
:1023F00052CC56CA5AC85EC662C46AC26EC08583D1
:10240000130717E42E84AA8413D9F5016373F70226
:102410003707F07F63ECE7109396C500B182C98E51
:10242000639D063481470147631A092EAA872E87C8
:10243000F5A43737D63F130727E4636CF71837073F
:10244000303E175A0000130A6A6F63E9E72E2686AA
:10245000A2862685A285EF10900F975700009387DC
:10246000E7739043D4432A89AE89EF10500E9757F3
:102470000000938727739043D443EF10D0584A86C7
:10248000CE86EF10D00C97570000938727729043A9
:10249000D443EF0050274A86CE86EF10500B975753
:1024A0000000938727719043D443EF10D0554A869C
:1024B000CE86EF10D009975700009387277090437E
:1024C000D443EF0050244A86CE86EF1050082A8667
:1024D000AE862685A285EF1010532A89AE894A86DA
:1024E000CE862685A285EF10900697570000938729
:1024F000676D9043D4432A8BAE8B4A85CE85EF100F
:1025000090502A86AE865A85DE85EF10C012268648
:10251000A286EF10504F2A86AE8603250A00832537
:102520004A00EF10504EAA872E87CDAA9757000079
:10253000938747629043D443EF10206B6346A024F7
:1025400097570000938787629043D4432685A285DE
:10255000EF108074814701476342051C97570000C4
:10256000938747629043D443131C3900268517593B
:10257000000013092966A2854A9CEF10407D0326BE
:102580000C0083264C00EF001018EF20A03B2A8C93
:10259000EF20C041975700009387475F9043D44393
:1025A0002A89AE89EF10A07A2A86AE862685A28572
:1025B000EF107045975700009387C75D9043D44351
:1025C0002A8AAE8A4A85CE85EF1060782A8BAE8B38
:1025D00091A037A7F03F1307172BE361F7F8131407
:1025E0003900175700001307E75F22971043544341
:1025F000054C330C2C41EF10104197570000938786
:10260000675FA29703AB070083AB47002A8AAE8AB5
:10261000330C2C415A86DE865285D685EF10B03EAB
:102620002A86AE86AA842E84EF1060729757000027
:102630009387C7569043D4432A89AE89EF102071FF
:1026400097570000938707569043D443EF10B03B51
:102650004A86CE86EF10A06F9757000093870755E4
:102660009043D443EF00300A4A86CE86EF10206EA6
:1026700097570000938707549043D443EF10B03826
:102680004A86CE86EF10A06C9757000093870753B9
:102690009043D443EF0030074A86CE86EF10206B7C
:1026A0002A86AE862685A285EF10F0352A86AE866C
:1026B0002A89AE892685A285EF1060692A8DAE8DA4
:1026C00063020C10975700009387C74F8843CC4391
:1026D0004A86CE86EF1030332A86AE866A85EE852E
:1026E000EF0070752A86AE865A85DE85EF10B03110
:1026F0005286D686EF1030319757000093870744F3
:102700002A86AE868843CC43EF10F02F930730C063
:102710006349FC08520C3307BC00AA87B25022540C
:1027200092540259F249624AD24A424BB24B224C6D
:10273000124D824D3E85BA854561828097570000D3
:102740009387C7439043D443175A0000130A0A3FA4
:10275000EF00607B03290A0083294A004A86CE865F
:10276000EF10A048E355A0CE2685A2854A86CE86E6
:10277000EF006079AA872E8755B72A86AE86EF00CC
:102780008078AA872E8759BF975700009387073F05
:102790009043D4433285B685EF10605BAA872E87BD
:1027A000B5BF93068C3E1757000013072742D20689
:1027B000B69510435443AA873E85EF104059AA8727
:1027C0002E87A9BF175A0000130A4A3709BB86058E
:1027D0008581370510802E957D818280014582801C
:1027E000B687B2882A832E88639D061463F9C50ACA
:1027F0004167636EE61AB70700016363F6349356C8
:102800008601E147175700001307C7533697034760
:102810000700BA97130700021D8F19CB3398E50004
:10282000B357F500B318E60033E807013313E500AA
:1028300013D608013355C80293960801C1829357F5
:1028400003013377C802B385A60242073368F70055
:10285000637AB80046989307F5FF636418016367CD
:10286000B8303E853308B8403357C802420313538B
:1028700003013378C802B386E60242083368680071
:10288000637BD80046989307F7FF636518017917B3
:102890006363D8003E874205598D8145828001E6F9
:1028A0000547B358C702416763EAE80EB70700015E
:1028B00063ECF82893D68801E14717570000130707
:1028C0006748369783460700BE9693070002958FA8
:1028D000E5EB939E08013387154113DF080193DE72
:1028E0000E018545935703013355E7033377E7031B
:1028F000B306D5034207D98F63FAD700C6971307EB
:10290000F5FF63E4170163E6D7263A85958F33D741
:10291000E703420313530301B3F7E703B30ED703EF
:10292000C207B3E7670063FBD701C6979306F7FFBB
:1029300063E51701791763E3D70136874205598D9F
:10294000828063E2D504C16763E2F604B707000141
:1029500063E4F61E13D786016148975700009387FA
:10296000673EBA9703C70700130E00024297330E63
:10297000EE40631A0E0C63EDB61C3335C5001345EB
:102980001500814582808145014582809307F00FC3
:1029900063F3D71C13D786002148C1B71307F00F84
:1029A000C686E37C17F193D68800A14739B7130791
:1029B000F00FB286E378C7E493568600A14799B535
:1029C000B398F80033D6D50013DF0801335EE60371
:1029D0003397F500B356D500558F939E080193DECB
:1029E0000E013313F50093550701B376E603B38761
:1029F000CE03C206CD8E63FBF600C6961306FEFF1D
:102A000063E4161763F2F616791EC6969D8E33D6CA
:102A1000E60393170701C183B3F6E6033385CE02BD
:102A2000139706015D8F637BA70046979307F6FF18
:102A3000636817136376A7127916469793150E01EC
:102A4000098FD18D45B5B357E600B396C601DD8E2B
:102A500033D3E50013DF0601B357E303939E06016A
:102A600093DE0E013398C5013357E5003368070143
:102A7000935808013316C6013373E303B385FE028E
:102A80004203B368130163FBB800B6981387F7FFDE
:102A900063EAD80C63F8B80CF917B698B388B84055
:102AA00033D7E803420813580801B3F8E803338327
:102AB000EE02C208B3E5080163FB6500B695130892
:102AC000F7FF63EDD50863FB65087917B695C20774
:102AD000416FD98F1307FFFFB3F6E70093D80701C3
:102AE000718F4182B38EE602B3856540B386C6021C
:102AF00013D80E013387E802BA96C2963386C8020D
:102B000063F3E6007A9693D80601469663E2C5021F
:102B10006385C5003E858145828041677D17F98EBA
:102B2000C206B3FEEE003315C501F696E374D5FE7A
:102B30001385F7FF8145828013D70601414831BDD7
:102B400093560601C1477DB993D60801C147B5B375
:102B50008145054582803687014801B5428785BF9A
:102B60003E86E9BDBA871DBF328E4DB579154698B0
:102B7000D5B97915C69759BBB68732882A832E876F
:102B80002E8E6393061463F1C50A41676378E61AD3
:102B90001307F00FB2866375C70093568600A147EE
:102BA000175700001307071A3697034707009308C3
:102BB0000002BA97B388F840638C0800B3951501FA
:102BC000B357F5003318160133EEB7003313150170
:102BD00013560801B357CE021315080141819356CD
:102BE0000301337ECE02B307F502420E3367DE00E7
:102BF0006378F7004297636507016373F7004297B4
:102C00001D8FB356C70293170301C1833377C702E1
:102C10003305D5024207D98F63ECA7083385A74057
:102C2000335515018145828001E605473358C702B7
:102C30004167636CE80EB70700016365F82A935695
:102C40008801E147175700001307C70F369703475E
:102C5000070093080002BA97B388F840639A081EE9
:102C6000131E0801B385054113560801135E0E01BA
:102C700013570301B3D6C502B3F5C502B386C60325
:102C8000C2054D8F6377D700429763640701636A7B
:102C9000D726158F3355C7024203135303013377E9
:102CA000C7023305C5034207B367670063F8A7008F
:102CB000C29763E5070163F3A700C2973385A74076
:102CC00033551501814582802A88E3EED5F4C1672A
:102CD00063E5F604B707000163E2F62013D386012B
:102CE000E148975700009387E7059A9703CE0700BE
:102CF00013030002469E3303C3416319030463E4D4
:102D0000B6006369C5003308C540958D33370501AA
:102D10003387E5404285BA8582809307F00F63FBD5
:102D2000D71C13D38600A1486DBF1307F00FC286CE
:102D3000E37A07F193568800A14729B7B707000146
:102D40006366F61A93568601E14799BDB357C601EB
:102D5000B3966600DD8EB3D8C50113D70601B3DE86
:102D6000E802139F0601B357C501135F0F01B39526
:102D70006500DD8D13D80501331666003315650037
:102D8000B3F8E802B307DF03C20833E80801637B46
:102D9000F80036989388FEFF6363D8166371F816BF
:102DA000F91E36983308F840B357E802C205C181CE
:102DB0003378E802330FFF02131708014D8F637B4E
:102DC000E70136979385F7FF6369D7126377E713B7
:102DD000F9173697C20EC162B3EEFE001388F2FFF8
:102DE000B3F80E019355060193DE0E013378060108
:102DF000B38F08033307E74133880E0393D70F01DE
:102E0000B388B802C298C697B38EBE0263F30701B7
:102E1000969E41687D1893D50701B3F70701C20755
:102E2000B3FF0F01F695FE976362B70A630EB7080A
:102E3000B307F5403335F500B305B740898D339EB0
:102E4000C50133D567003365AE00B3D56500828018
:102E50003318180133D7F50013560801B356C702CB
:102E6000131E0801B357F500135E0E01B39515014B
:102E7000DD8D93DE0501331315013377C702B307E8
:102E8000DE0293160701B3E6D60163F8F600C29698
:102E900063E5060163F3F600C2969D8E33D7C60242
:102EA00093970501C183B3F6C6023307EE029395EB
:102EB0000601DD8D63F8E500C29563E5050163F366
:102EC000E500C295998D6DB3E374F5F63386C7407E
:102ED000B3B7C700B6979D8DB28799BF13D30601CC
:102EE000C14801B593560801C147A9BB93560601D5
:102EF000C1477DB136838148EDB3AE87E1BDC68E53
:102F000055B5429779B33708100001117D18337712
:102F1000B80026CA3378D80093D4450113D34601AC
:102F2000131E37004EC61357D5010E089357D6010E
:102F300093F4F47F1373F37F06CE22CC4AC893D95F
:102F4000F50193DEF6013367C701131F350033E83F
:102F50000701931F3600338E64406380D91963568E
:102F6000C0136304031CB70680009307F07F336827
:102F7000D800638FF4369307800363C0C735FD47DD
:102F800063CDC747130500023305C541B3D7CF0151
:102F9000B316A8003399AF00DD8E33392001B35743
:102FA000C80133E926011D8F33092F41B3372F01A3
:102FB0003306F7409317860063D407243707800051
:102FC0007D173374E600630C042C2285EF20705FBC
:102FD000130785FF93070002998FB357F900331643
:102FE000E400D18F3319E9006341972A33059740F4
:102FF000130615007D47634DC73813070002118F74
:10300000B356C9003319E9003397E700558F3339B8
:1030100020013369270133D6C700814493777900B3
:1030200081CF1377F90091476308F7001307490030
:10303000333927014A963A899317860063D6071CCD
:10304000138514009307F07FCE856304F520B7073E
:1030500080FFFD17F18F9398D70113593900A60708
:10306000B3E82801B1831375F57F9396C700520525
:10307000F2406244B182FE05C98ECD8ED2444249EF
:10308000B2494685B68505618280631E0E0A1383A8
:1030900014001373E37F63170322B367E701B36878
:1030A000F801639D041A6387074063860844330967
:1030B000FF41B307074133362F013386C7409317CB
:1030C000860063D6074C3389EF41B307E84033B637
:1030D0002F013386C740F68991B76350C00F630054
:1030E000030CB70680009307F07F3368D800638A2B
:1030F000F43A9307800363CBC713FD4763DFC735FB
:1031000013090EFE93070002B3562801630AFE005E
:10311000130900043309C94133192801B3EF2F0102
:103120003339F0013369D90031A2B367F801638AFA
:10313000071C9307FEFF638C07389306F07F630933
:10314000DE1A3E8E0DBDB305934063910422B36732
:10315000E701638707329387F5FF6381074493068E
:10316000F07F638CD520BE859307800363CCB72A9C
:10317000FD4763CFB73C930700028D8F3319F700EB
:10318000B356BF00B317FF003369D900B337F0005F
:103190003357B7003369F9003308E84041ACB367EF
:1031A000F801638007349307FEFF638A07209306C4
:1031B000F07F6308DE2E3E8E2DBF631E0E149386B5
:1031C000140093F7E67F63910734B367E7016395D3
:1031D000042C6380073EB367F801638E0730330920
:1031E000FF01B3070701333FE9013386E701931776
:1031F000860063D70700B70780FFFD177D8E8544E3
:1032000093777900E39F07E09317D601935839002D
:10321000B3E8F800935736001307F07F638DE4049A
:10322000B207B18313F5F47FCE8581B53369F80118
:10323000333920017A99B337E9013386E7009317D0
:103240008600E3DF07FA85049307F07F6396F4189E
:10325000CE851305F07F8147814801BDC1EB6384B2
:10326000083A931636009317D8018D82B3E8D70039
:10327000F68993573800B3E7F800F9DB8145130569
:10328000F07FB70708008148CDB3370680FF7D1671
:103290007D8E93777900998CE39507D8B5B74A85E9
:1032A000EF20303213078501FD47E3D5E7D213063F
:1032B00085FFB317C900014905BB3369F8013339EC
:1032C0002001DDB13309FF413306074133342F01BB
:1032D000330486409317840063CD0724B3688900C4
:1032E000E39308CE8147814981441DBFE39808F8E4
:1032F0000E059317D7010D81B3E8A7009357370048
:103300009DBF0E059317D7010D81B3E8A700F28486
:103310009357370011B73305934063820412B70601
:1033200080009307F07F558F630DF32E9307800382
:1033300063CBA720FD4763C3A72A93070002898FA9
:103340003319F700B356AF00B317FF003369D90044
:10335000B337F0003357A7003369F9003A987E99E4
:10336000B337F901338607019A84D1BDB7068000CF
:103370009307F07F558FE319F3DE931736008D83A3
:103380009318D801B3E81701F68993573800E5B5CB
:10339000130715FE9306000233D7E700630AD60031
:1033A000930600043386C6403396C7003369C900CC
:1033B000333920013369E9000146814491B533096D
:1033C000FF01B30707013336E9013E9693178600E4
:1033D0008544E3D707E28944B70780FFFD17F18FE3
:1033E0001357190013791900336927019398F701CE
:1033F00033E9280113D6170015B113090EFE930700
:103400000002B3562801630AFE00130900043309C1
:10341000C94133192801B3EF2F013339F001336962
:10342000D90059B63369E7013339200133892F4177
:10343000B3B72F013306F8409A84F689A5BEB36767
:10344000E701638207189307F5FF6384071C93065F
:10345000F07F6304D5123E85D1BD93070002B38788
:10346000C741B316F8003399FF0033D6CF01D18E90
:1034700033392001B357C80133E926013E975DBBBC
:10348000931736008D839318D801B3E81701AE84E3
:1034900093573800F68949B3EDC33369F801E31F48
:1034A00009DC0E059317D7010D81B368F50093571A
:1034B0003700D1B36381080E931636009317D801F5
:1034C0008D82B3E8D700F6899357380091BB330952
:1034D000FF41B3070741333F2F013386E74185445E
:1034E000D1BC0E059317D7010D81B368F500F284A6
:1034F0009357370015B30E059317D7010D81B3E825
:10350000A7009357370029BB9307F07FE382F6D4D7
:103510003309FF013336E901B3070701B2979398E6
:10352000F7011359190033E9280113D61700B6849F
:10353000C1B93389EF413307E84033B62F01330473
:10354000C740F68949B43369E7013339200101BD29
:10355000938705FE93060002B357F700638AD500F0
:1035600093060004B385B6403317B700336FEF00FE
:103570003339E0013369F90055BD931736008D8367
:103580009318D801B3E8170193573800EDB1B36829
:10359000C900E39708C68147814959B13389EF4192
:1035A000B307E84033B62F013386C740F689854418
:1035B00011B4931636009317D8018D82B3E8D70063
:1035C00093573800B1B9931636009317D8018D82FE
:1035D000B3E8D700AA84935738003DB9930705FE96
:1035E00093060002B357F700630AD5009306000460
:1035F0003385A6403317A700336FEF003339E0015E
:103600003369F900A9BB81451305F07FB7070800AE
:10361000A9BC3309FF01B30707013336F9013E9610
:1036200075B3931636009317D8018D82B3E8D7008F
:103630009357380089B1397193D7450122DC4AD8B4
:1036400056D22A891394C50006DE26DA4ED652D405
:103650005AD05ECE13F5F77F318093DAF501630B14
:1036600005109307F07F630BF514135AD9010E046C
:1036700033648A00370A8000336A4401131B39001F
:10368000930415C00144814B13D846011399C60019
:103690001378F87FB2881359C90093D9F601630EE5
:1036A00008089307F07F6300F8041357D6010E094A
:1036B00033692701130818C0B70780003367F90082
:1036C00093183600B38404418145BD4733C83A019D
:1036D00063E4871A974700009387C7520A043E9411
:1036E00010403E9602863367C900938414806312AB
:1036F00007101364240081488945C1BF1306F07F79
:1037000081470147B207F25062545206B1837E08E6
:10371000D18FB3E70701D2544259B259225A925A73
:10372000025BF24B3A85BE85216182800148130617
:10373000F07FB70708000147F1B73367C9004DC7ED
:10374000630809304A8532C4EF20A0672246130778
:1037500055FFF547930685FF998F3319D900B35765
:10376000F60033E72701B318D60026959304353FBA
:103770008145A1BF336A240163030A0636C632C4F9
:103780006306042A2285EF20C0632246B246AA843B
:10379000130755FF754A138B84FF330AEA4033142D
:1037A0006401335A4901336A8A00331B69011305E6
:1037B000D0C0B30495400144814BF9B5336A24016C
:1037C00063180A002144014B9304F07F894B6DBDBF
:1037D000228A4A8B31449304F07F8D4B75B5114496
:1037E000014B8144854B4DB51364140081488545D8
:1037F000E9BD136434004A878D45C1BD630A052EB7
:103800008547898F9306800363DDF6320146814741
:103810000147CDBDCE868947638DF53A8D47E38755
:10382000F5F085473688E383F5FE1385F43FE357CB
:10383000A0FC93F778006396072893D63800931777
:10384000770063D80700B70700FFFD177D8F13854A
:1038500004409307E07FE3C3A7EA1316D701931749
:103860009700B1833367D6001376F57F61BDD686A6
:103870005287DA88DE8545B763614723630DEA2006
:10388000DA86FD145284014B9317870013D3880105
:103890003363F300935E0301B357D403131F030193
:1038A000135F0F0193D50601139E88003374D40370
:1038B0003307FF024204C18D63FBE5009A9513862E
:1038C000F7FF63EE652663FCE526F9179A95998D57
:1038D00033D7D503C206C182B3F5D5033306EF0251
:1038E000C205D58D63FBC5009A959306F7FF63E685
:1038F000652463F4C52479179A95C20741645D8FE6
:103900009307F4FF3375F70093580701935F0E0197
:10391000B377FE00B302F502B386C540B383F80265
:1039200093D502013386AF021E962E963385F80397
:10393000637376002295C168FD18935506013376AE
:1039400016014206B3F81201AA95469663E6B6122E
:103950006382B6123306CB408D8E333BCB00338B64
:1039600066411385F43F630C6317B358DB0393552B
:103970000601337BDB03B3061F03420B33EB650108
:10398000637BDB001A9B9385F8FF636D6B20637B81
:10399000DB20F9181A9B330BDB40B356DB034206DE
:1039A0004182337BDB03330FDF02420B3366660158
:1039B000637BE6011A969385F6FF6367661E63755F
:1039C000E61FF9161A96C208B3E8D80093950801C5
:1039D00093D20801C181B38EF5023306E641B38567
:1039E000BF0293D60E01B387F202BE95AE96B38F97
:1039F0005F0263F4F600C167BE9FC165FD1593D7F2
:103A00000601ED8EC206B3FEBE00BE9FF696637F32
:103A1000F6091A969387F8FF6369661A6368F619C0
:103A2000630FF61BBE8893E8180011B54A85EF2096
:103A3000403913075501F145930405022246B24669
:103A4000E3DAE5D4130485FF331A8900014B85B30B
:103A5000328532C4EF20E03613075501F146AA87BC
:103A6000224613050502E3D6E6CEE1173317F6002A
:103A70008148E5B9E370CBEE729B3335CB011A95E3
:103A8000AA961305F7FF6378D30263E6B610638244
:103A9000D5102A87C1B5E3651BDF93551B0093162C
:103AA000FA0113541A00CD8E7E0BF9BBE31DF6F715
:103AB000E38F06D6B9BFE31ED3FCE378CBFD2A879C
:103AC00051BD93F7F8009146E389D7D693B7C8FF65
:103AD0009386480093C717008D823E978DB3814629
:103AE0008547E34CA0FEFD58E31C05D0930410C0AD
:103AF00085471385E441B316A70033D6F800339504
:103B0000A800D18E3335A000C98E13F67600335746
:103B1000F70001CE93F7F60011466388C70093873C
:103B20004600B3B6D7003697BE869317870063D892
:103B30000704054681470147F1B636877DBBB2874A
:103B400079B3FD46E3D7F6FA0556098E93060002CF
:103B50003356C7006388D7009387E443B317F70051
:103B6000B3E8F800B3361001D18E13F67600814722
:103B700001CE93F7F60011460147E392C7FA931777
:103B800097001316D701B18313D73600518F014622
:103B900095BEE370CBF0729B3335CB011A95791744
:103BA000AA964DBBAE88C5BBAE8631BD93171E002D
:103BB00033BEC70172931A96F9183E8EE315F6E7E5
:103BC000E307DEC693E818009DB1BE88E30AF6FF5E
:103BD00099BD36881306F07F8147014725B6E36714
:103BE000DEFCBE88E310DEFE99B113D74501B707AE
:103BF0001000FD1713D846011377F77F9308F07F65
:103C000033F3B7002A8EF58FFD81B28E1378F87FDB
:103C1000FD8263081703630018030DEBB368A3006C
:103C2000631408005D8E29CA638508046388D50281
:103C3000054595ED8280B3E8C700E38008FE79551D
:103C400082803365A30065FD630CE80263140800FD
:103C50005D8E79DEE39ED5FCE34CE8FC634807010A
:103C6000E3E867FC6303F302637FF30081E57D55BE
:103C70008280F5DE054582800145E39B08FA82805B
:103C80005D8E69DA6DBF01458280E3E3CEFB0145BD
:103C9000E372DEFBE5F1E1BF13D74501B707100082
:103CA000FD1713D846011377F77F9308F07F33FE93
:103CB000B700AA8EF58FFD81328F1378F87FFD82D1
:103CC000630E1703630D180129E3B368AE00631F89
:103CD00008005D8E01EE0143638C080421A8B3E85F
:103CE000C7000943639608046DD305A063840804E4
:103CF0006385D50205438DCD7D531DA8B368AE0005
:103D0000094363970802630AE802631408005D8EA2
:103D100075D2E391D5FEE34FE8FC63490701E3EB7D
:103D2000C7FD630FFE0001436374FE00F1D5054338
:103D30001A858280EDFE7D53E5BF5D8E79DACDBFB9
:103D4000E36ADFFB0143E3F5EEFFF5F175B7397187
:103D50004AD813D945014ED652D456D29399C500AC
:103D600006DE22DC26DA5AD05ECE1379F97F2A8A63
:103D700093D9C90093DAF501630D090E9307F07F1B
:103D80006306F9181354D5018E09B3693401370459
:103D9000800033E4890093143500130919C0814968
:103DA000814B13D74601139AC6001377F77FB2856C
:103DB000135ACA0013DBF601630B07109307F07F59
:103DC0006303F7049357D6010E0A33EA470113073A
:103DD00017C0B7078000B367FA00931536003A9909
:103DE000814833C76A01BD463A851308190063E864
:103DF0003617174600001306E6E48A09B29983A62F
:103E00000900B2968286B367CA001309F97F6399E5
:103E1000071293E9290081458948E1B701479307D3
:103E2000F07F3704080081443204D20731807E07D6
:103E30005D8C598CA285F250625426854259D25429
:103E4000B259225A925A025BF24B216182805A8502
:103E50003E84AE84C68B8947638DFB0E8D47E38F0E
:103E6000FBFA85472A87639EFB38814701448144DA
:103E700065BF33E4A90061C036C632C4638C092A29
:103E80004E85EF1010742246B246AA87130755FFDD
:103E90007544938487FF198CB399990033548A0031
:103EA00033643401B3149A0013D746011309D0C008
:103EB000139AC6001377F77F3309F9408149814B84
:103EC000B285135ACA0013DBF601E31907EEB36794
:103ED000CA00B1C7630F0A22528532C4EF10706E58
:103EE00022462A87930655FFF547930587FF958F4E
:103EF000331ABA00B357F600B3E74701B315B6005B
:103F00003309E9401309D9C08148E1BD33E4A90070
:103F100001ECA14981441309F07F894B59B593E91C
:103F200019008145854875BD4E84AA84B14913099D
:103F3000F07F8D4BBDB5914981440149854B95B5C5
:103F400093E93900D2878D4869BD89475685E39743
:103F5000FBF02A879307F07F01448144F1B5C16EDD
:103F60001386FEFF93D6040113DE0501F18CF18D5B
:103F7000338695023383B6029358060133059E02B9
:103F80001A95AA98B382C60363F36800F692C16FCC
:103F90001383FFFF33F5670093D30701B3F768007E
:103FA000C207337366003E933306950293D8080127
:103FB000B387A602135F0601B3849302BE94FA94FA
:103FC000B38E760263F3F400FE9E416A9307FAFF14
:103FD000935F0401B376F400B3F9F4007D8EC180E1
:103FE0003384D502C209338FD401B299CE98B30776
:103FF000DE02935E0401B385BF02AE97BE9E330E10
:10400000FE0363F3BE00529EC1679385F7FF33F64C
:10401000BE006D8C4206229693DE0E01B305D502DA
:10402000769E3385AF0213D40501B386D302AA96D8
:10403000A296B38FF30363F3A600BE9F41657D157F
:10404000B3F7A600C2076D8DAA97B3855800B3B920
:104050003501FA97B2953384370133B6C500B30EF4
:10406000C4013385CE0033343401B3B7E701C18FC7
:1040700033BECE0113D406013336C5003E943366F9
:10408000CE009394950032947E94B3E464002604A9
:1040900093567501B3349000DD8193179500CD8C54
:1040A000558CDD8C9317740063DB070093D71400E5
:1040B00085889316F401DD8CD58C058042899307A1
:1040C000F93F6359F00893F6740081CE93F6F4003B
:1040D00011466388C60093864400B3B496002694C4
:1040E000B6849316740063D80600B70700FFFD1767
:1040F0007D8C930709409306E07F63CFF60E93D63D
:1041000034009314D4012604D58C318093F7F77FC3
:1041100021BB328532C4EF10D04A93065501F147D6
:10412000130705022246E3D1D7DC6115B317A600B9
:104130008145F9B3EF10F04813075501F145930796
:1041400005022246B246E3D5E5D461153314AA0030
:10415000814499BB85469D8EB1E71309E941B39728
:104160002401B3D4D40033192401B337F000B3646D
:104170009900DD8C93F77400B356D40081CF93F788
:10418000F40011466388C70093874400B3B49700D6
:10419000A696BE849397860063D80704854701449A
:1041A000814459B113068003E341D6CC7D46E356E2
:1041B000D6FA0556B307F640930500023356F400CD
:1041C0006387B6001309E943B3172401DD8CB334C8
:1041D0009000D18C93F67400014499CA93F7F400CF
:1041E00011468146E392C7FA139496003180F60691
:1041F0008D80D58C81470DB99307F07F01448144B0
:1042000025B142896DBD370710007D170111337349
:10421000B70093D84601758F935ED60122CC26CA8B
:104220000E0393D445019357D5010E0706CE4AC815
:104230004EC693F8F87F130EF07F33E7EE0093F449
:10424000F47F13D4F50133E36700131F3500FD82BB
:10425000931E36006380C81993C61600B3851441B7
:104260006305D4126351B018638B081AB707800036
:104270005D8F6381C4599307800363C4B734FD47DE
:1042800063C5B748930700028D8FB3D9BE003318BA
:10429000F700B39EFE00336838013357B700B339D7
:1042A000D001336838013303E340B3090F41B3371A
:1042B0003F013306F3409317860063D30724370981
:1042C00080007D1933792601630F092C4A85EF1090
:1042D000502F130785FF93070002998FB3D7F9007A
:1042E0003316E900D18FB399E9006344972A058F0B
:1042F00013061700FD4663C5C63A13070002118F67
:10430000B3D6C9003398E9003397E700558F3338A7
:104310000001B369070133D6C700814493F77900E0
:1043200081CF93F6F90091476388F60093864900A0
:1043300033B836014296B6899317860063D6071CB8
:10434000138714009307F07F05886306F720B707EB
:1043500080FFFD17F18F1398D70193D93900A60775
:1043600033683801B1831377F77F9396C7005207FC
:10437000B1827E04D98EC18EF2406244D244424959
:10438000B2494285B685056182806356B00A638A68
:104390000812B70780005D8F6387C42D93078003E1
:1043A00063C7B718FD4763D2B73C138805FE930770
:1043B0000002B3590701638AF50093070004B3852F
:1043C000B7403317B700B3EEEE003338D00133688F
:1043D000380195A2B367D7019385148099E393C6FA
:1043E0001600630AD404D1E19387140093F7E77FA2
:1043F0006399071EB367E3013368D701639204161C
:104400006382073C63160842131835009316D301E4
:104410001358380033E806019357330019A2B367E5
:10442000D7016385071A9387F5FF638B073A638C7F
:10443000C523BE8589B56399051C9386140093F73F
:10444000E67FC1EFB367E30163900436638D0744F1
:10445000B367D701639407460E051318D3010D8186
:104460003368A800935733006DA8B38598406397CD
:104470000420B367E301638D07309387F5FF6389F9
:1044800007401305F07F6383A520BE859307800353
:1044900063C2B72AFD4763C8B73C930700028D8FFC
:1044A0003318F3003356BF00B317FF003368C8005A
:1044B000B339F0003353B300336838013307674032
:1044C000B5ACB367D701638307109387F5FF638F9C
:1044D000071E6380C52FBE85D1B59307F07F638B20
:1044E000F606FA9E33B6EE01B307E300B2971398CF
:1044F000F70193DE1E00B369D80113D61700B68406
:1045000093F77900E39F07E09317D60113D839009A
:104510003368F800A685935736001307F07F638051
:10452000E506B207B18313F7F57F05883DBD336714
:10453000D7013338E000B309E801B3B7E9013386A6
:10454000670093178600E3DD07FA85049307F07F81
:10455000639CF41805881307F07F8147014831B543
:10456000639107106301083C131836009317D701B5
:10457000135838003368F800368493573700B36710
:10458000F800E9DB01441307F07FB7070800014892
:10459000E9BB370680FF7D167D8E93F77900998CF5
:1045A000E39107D895B74E85EF10B0011307850149
:1045B000FD47E3D2E7D2130685FFB397C9008149CF
:1045C0002DB33368D70133380001C5B11318350056
:1045D0009317D301135838003368F800935733000A
:1045E0002DBFB309DF413309E34033363F013309BF
:1045F000C9409317890063CA072033E82901E315EE
:1046000008CC8147014431BFB385984063810414CD
:10461000B70680009307F07F3363D3006381F820EF
:104620009307800363CCB722FD4763C9B72C930778
:1046300000028D8F3318F300B356BF00B317FF008D
:104640003368D800B339F0003353B300336838010E
:104650001A97B309D801B3B7D9013386E700C684E6
:10466000CDB5E31108F2131835009317D301135891
:1046700038003368F8009357330011B737058000CE
:104680009307F07F3363A300E392F8E00E0613185C
:10469000D7010D823368C800935737003684C5B5FB
:1046A00005179306000233D7E700630AD600930686
:1046B00000043386C6403396C700B3E9C9003338D7
:1046C0003001B369E800014681441DBDB309DF0133
:1046D000B307E30033BFE9013386E7019317860090
:1046E0008544E3DF07E08944B70780FFFD17F18FBA
:1046F00013D7190013F81900336807019399F701CC
:10470000B3E9090113D6170011B9138805FE930701
:104710000002B3590701638AF50093070004B385CB
:10472000B7403317B700B3EEEE003338D00133682B
:104730003801A5BE3363E30133386000B3890E410D
:10474000B3B73E013306F740C6843684ADB6B367CF
:10475000E301638707189387F5FF638C071C9306B3
:10476000F07F638ED50ABE8565BD930700028D8FED
:10477000B3D9BE003318F700B39EFE00336838018A
:104780003357B700B339D001336838013A9365B372
:10479000131836009317D7011358380033E8070170
:1047A00036849357370095BBBDCB3367D701E31BE6
:1047B00007DC0E051318D3010D813368A800935749
:1047C000330075BBE30F08E2131836009317D701C7
:1047D000135838003368F80036849357370091B384
:1047E000B309DF41B307E340333F3F013386E7417D
:1047F0008544D1B4131835009316D30113583800EB
:1048000033E80601935733009DBBB389EE4133066D
:10481000674033B93E0133092641368475B40E062C
:104820001318D7010D823368C8009357370081BB36
:10483000B309DF41B307E34033363F013386C74056
:104840009317860063D7070AB389EE41B307674021
:10485000B3BE3E013386D7413684C9B43363E30126
:1048600033386000FDB3138805FE93070002B35987
:104870000301638AF50093070004B385B74033133F
:10488000B300336F6F003338E001336838017DB512
:10489000B389EE41B3076740B3BE3E013386D741CB
:1048A0003684854409BC131836009317D701135872
:1048B00038003368F80093573700A5B1B309DF011A
:1048C000B307E30033BFE9013386E701931786009E
:1048D000E3D807C2B70780FFFD177D8E85440DB171
:1048E0000E061318D7010D823368C800935737009E
:1048F0002DB133E8C900E30608D019B1138805FECD
:1049000093070002B3590301638AF500930700047B
:10491000B385B7403313B300336F6F003338E00112
:10492000336838013DB301441307F07FB70708002F
:104930002DBCB309DF01B307E300B3BED901338651
:10494000D70169BB93D74501B70610001387F6FF5F
:1049500093F7F77F1306E03F6D8FFD81635CF600F0
:104960001306D041635AF600370500801345F5FF62
:104970002E95828001458280130630431D8E7D482E
:10498000558F635DC80093063041B387F640B35737
:10499000F7003305F040E5F13E8582809387D7BE6E
:1049A000B317F7003355C500C98FE5B7411106C6E7
:1049B00022C426C20DCD9357F541B3C4A7009D8CE8
:1049C0002A842685EF10E03F9306E041898EA947AF
:1049D0007D8093F6F67F63CDA7022D47098FB3D76D
:1049E000E4005505B207B394A400B18329A00144A3
:1049F000814681478144B207D206B1837E04D58FB8
:104A0000C18FB24022442685BE85924441018280F6
:104A10005515B397A400B207B1838144E9BF1DCDFA
:104A2000411122C406C62A84EF10A0399306E04142
:104A3000898EA94793F6F67F63DCA7025515B31755
:104A4000A400B207B1830147B2402244B207D206A4
:104A5000B183D58F3A85BE854101828081478146E9
:104A6000B207D206B1830147D58F3A85BE858280D1
:104A70002D47098FB357E400B207130755013317C9
:104A8000E400B183D1B73707100093D745019306EF
:104A9000F7FF93F7F77F1308E03FED8E13D6F5018C
:104AA0006353F8029305D04363D2F5028545918D97
:104AB0003305B04013D6F541B7050080B337A000E9
:104AC000918D9D8D82800145814582801308204310
:104AD000B3E5E6006354F8021387D7BA9387D7BCCF
:104AE00063450704B315E500014565D23305A040D1
:104AF000B337A000B305B0409D8D8280930630434C
:104B00009D8E7D47634CD7001387D7BE3397E50052
:104B10003355D500598DB3D5D500C1BF13053041EC
:104B20001D8D33D5A5008145C9B7FD461357150026
:104B30009D8E3357D700B395F500D98D3315F50009
:104B40006DB7011106CE22CC26CA4AC84EC6B3673D
:104B5000B5009DCFAE84AA8913D9F50163CE0504B3
:104B60002684ADC42685EF10C0259306E043898EC8
:104B70009307304363CAD7089397C4002D464E87E6
:104B800093F6F67FB1836359A600130655FFB9A8C3
:104B90000149814681470147B207F2406244D2068B
:104BA000B1837E09D58FB3E72701D2444249B24988
:104BB0003A85BE85056182803305A040B336A000EA
:104BC000B304B040958CAA892684C9FC4E85EF10A9
:104BD000401F2A869306E04313050502898E93073A
:104BE000A00293F6F67F63C7A70C55061307B00221
:104BF000098FB397C40033D7E9005D8F9317C700BF
:104C0000B1833397C90049BF9307604363DBD70281
:104C10002147098F930507FE63C2050CB3D5B40085
:104C200001471306850193078503634C06083396F5
:104C3000C9008149B3E9C90033363001B3E9C50081
:104C40003A84A1474E8663C9A704B70780FFFD17C2
:104C5000937576003377F40085C59375F600114897
:104C6000638005039305460033B6C50032971316DB
:104C70008700635106089306F0437D8F898E2E8648
:104C800013553600931797001316D7013367A60004
:104C9000B18393F6F67F09B793078002930585FFEA
:104CA000898FB3D7F9003317B40033E4E7003396A4
:104CB000B90061BF5516B397C900B207B183014768
:104CC000E1BD7D4613D819001D8E3358C8003396B8
:104CD000F4003366C800B399F900A9BF7D46198E68
:104CE00093971400B3D5E900B397C700DD8D33D790
:104CF000E40005BF2E8669B74111370780007D1794
:104D000013D8750126C2935475013373A70093F429
:104D1000F40FB376B7004AC01378F80F1359F501B2
:104D200006C622C4FD819A8726854A86131E330053
:104D3000939E3600B3880441630AB90E6350100D88
:104D4000630408149307F00F638BF414B70700048F
:104D5000B3EEFE00ED4763C1172993070002B38746
:104D60001741B397FE00B3D81E01B337F000B3E785
:104D7000F800B307FE4013975700635E0718370427
:104D800000047D147D8C2285EF10A0036D15B317F0
:104D9000A4006348951A058D13041500130700023B
:104DA000018F3397E7003337E000B3D78700D98FFF
:104DB000814413F7770019C713F7F700914663038F
:104DC000D700910713975700635B071485041307F7
:104DD000F00F4A866383E4169A07A58313F5F40F50
:104DE000B2402244A6079314750113D59700458D50
:104DF0007E0692440249518D410182806399080ADE
:104E0000138714001377E70F6317071463900422C6
:104E1000630D0E1EE3860EFCB307DE4113975700A9
:104E200063500722B387CE412E8961B7635C100BB4
:104E3000630E08089307F00F6383F406B7070004B6
:104E4000B3EEFE00ED4763C9171F93070002B38757
:104E50001741B397FE00B3D81E01B337F000B3E794
:104E6000F800F297139757006357070A8504130752
:104E7000F00F6384E40CB706007E13D71700FD160D
:104E8000858B758FD98F35B7638D0E08FD18B307E5
:104E9000DE41E38208EE9307F00FE39DF4EA630D31
:104EA000030801461305F00FB707400015BF33078D
:104EB0009840EDE863020E147D1763080718930706
:104EC000F00F6319F80E2E893683D1BF638B0E0461
:104ED000FD18B307DE01E38708F89307F00FE393AB
:104EE000F4F675BF63950808850413F7E40F6313A0
:104EF000071263170510630F0E14E3830EEEB3075A
:104F0000DE0113975700814463570700370700FC01
:104F10007D17F98F854413F77700E31F07E813D354
:104F200037009307F00FE38CF4F693179300A583F3
:104F300013F5F40F4A866DB54A861305F00F8147C5
:104F400045B5370700FC7D17F98F13F77700898C7B
:104F5000E31407E6E9B73304DE419317540063C353
:104F6000070CE31204E201460145814795BD330772
:104F70009840ADC49307F00FE308F8F4B7070004B6
:104F8000336EFE00ED4763CCE70C93070002998F68
:104F9000B317FE003357EE00B337F000D98FF69702
:104FA000C284C9B59307F00FE30FF8F0B707000408
:104FB000336EFE00ED4763C3E70893060002998E47
:104FC000B316DE00B357EE003337D000D98FB38766
:104FD000FE40C2842E8945B3854761BB630E0E0631
:104FE0007D17B307DE01C284E30E07E69307F00FD7
:104FF000E31AF8F8368365B53683C2842E8915B76F
:10500000E3040EECE38D0EE869BD638D0E022E867F
:10501000B687F9B39307F00FE381F4F2B307DE012B
:105020008583D5BD3384CE412E89B1BBE31C0EFCF4
:10503000E3890EE62E8949BD854725B5854741BFE1
:10504000E39B07EC0146814761BBB387CE41C28435
:105050002E8915B3B68769B33683C284D9B585471F
:105060003DBF3971935775014AD856D25ECE931A17
:1050700095001359F50106DE22DC26DA4ED652D40D
:105080005AD093F7F70F93DA9A00CA8B638207120C
:105090001307F00F6384E7128E0A37070004B3EAA0
:1050A000EA00138A17F80144014B93D775019394D2
:1050B000950093F7F70FA58093D9F501FDC7130766
:1050C000F00F6387E7028E04938717F83707000411
:1050D000D98C330AFA408146558C173700001307E4
:1050E00067BA0A043A941C4033493901BA97828757
:1050F000130A1AF0F9E88946558C17370000130790
:1051000067BC0A043A941C4033493901BA97828734
:1051100001491307F00FB707400013959700F250AD
:1051200062549317770125817E095D8D33652501D2
:10513000D2544259B259225A925A025BF24B21611F
:1051400082801307F00F8147C9BFA68ACE8B368BAA
:105150008947630BFB1A8D47E30CFBFA8547630A0B
:10516000FB0A1307FA0713F91B006357E01293F7C2
:105170007A0099C793F7FA0091466383D700910AA2
:1051800093974A0063D90700B70700F8FD17B3FAF1
:10519000FA0013070A089307E00FE3C4E7FA9397AE
:1051A0006A00A5831377F70F8DBFB9E48546A9B7C9
:1051B00063940A021144014A054BC5BD63990A0074
:1051C0002144130AF00F094BCDB58D4631B7314458
:1051D000130AF00F0D4BD1BD56852EC6EF00703E61
:1051E0009307B5FFB39AFA009307A0F8338AA74054
:1051F0000144014BB24555BD2685EF00903C130795
:10520000B5FFB307AA00B394E400138A6707814689
:10521000E1B513F91B000147814701B741661395BA
:1052200054007D1693570501698E63FA9A0AB3D527
:10523000FA027D1AD68601473388C502B3F6F60214
:10524000C206558F637B07012A979386F5FF636833
:10525000A70A6376070BF9152A9733070741B35658
:10526000F7023377F702B38AC6029317070163FB8D
:105270005701AA971387F6FF63E1A70863FF570753
:10528000F916AA97C205B38A5741D58DB33A500192
:10529000B3EA5501CA8BF1B58546998E11C76D46A3
:1052A00001478147E34BD6E6130AEA09339A4A01DC
:1052B000B3D7DA00B33A4001B3E7570113F77700E9
:1052C00019C713F7F70091466303D70091071397A7
:1052D0005700634807029A07A58301473DBD93D64F
:1052E0001A00B3D5F6021397FA0141833388C50239
:1052F000B1B7CE8B368B814AA1BDBA8661B7B68570
:10530000A9BF0547814711BD13F91B001307F00F13
:10531000814721B593567501B7078000FD1713D655
:10532000750193F6F60F1308F00FB3F8A7001357A3
:10533000F501ED8F1376F60FFD8163810603630C93
:1053400006018DE211E2B1C3638E08026305B70462
:1053500005451DE78280F5D779558280E39E08FEDA
:105360006309D60211E2EDD7E314B7FEE342D6FE9D
:1053700063C7C600E3EE17FD0145E3FDF8FC01E756
:105380007D558280F5DD054582800145E39208FC6C
:105390008280F9DBD1B78146E1BF797122D4135401
:1053A00075014ECE52CC9319950006D626D24AD01E
:1053B00056CA5AC81374F40F93D99900135AF501B9
:1053C00069C49307F00F6308F40E93973900370709
:1053D0000004B3E9E700130414F88144014B13D728
:1053E0007501939A95001377F70F93DA9A0013D902
:1053F000F50145CF9307F00F630CF7028E0A1307F0
:1054000017F8B7070004B3EAFA003A9401463345A7
:105410002A01BD47AA869305140063E29710173747
:1054200000001307278E8A04BA949C40BA9782879B
:105430001304F40F63980A0C93E424000946C1BFD7
:1054400001451307F00FB7074000B2502254A607DA
:105450005E07A5837E05D98F92540259F249624AAC
:10546000D24A424B5D8D45618280CA86D689328B95
:1054700089476301FB0A8D47E304FBFC85473685BA
:105480006312FB1A01478147C9B7639E090413D70A
:105490007501939A95001377F70F91440144054BDA
:1054A00093DA9A0013D9F50131F7639D0A0093E46A
:1054B00014000546A9BF63930902A1441304F00F29
:1054C000094B31BF5685EF00D00F9307B5FF098C0C
:1054D000B39AFA001304A4F8014615BFB1441304AB
:1054E000F00F0D4BEDBD4E852EC6EF00900D9307CE
:1054F000B5FF1304A0F8B399F900098C8144014B5E
:10550000B245F1BD93E434000D4611B78947D28608
:10551000E313FBF636851307F00F81473DB7416370
:105520009306F3FF13D6090193D80A01B3F7D90004
:10553000B3FADA0033885703B389F8021357080126
:10554000B30A5603D6994E97330616036373570171
:105550001A96C167FD17B376F7003378F800C206D4
:10556000C2969399660093570701B3393001E982D7
:10557000B2979A07B3E6D900B3E9D70093974900E9
:1055800063D9070013D7190093F71900B369F7001F
:105590002E841307F4076350E00493F7790099C74A
:1055A00093F7F90091466383D700910993974900D7
:1055B00063D90700B70700F8FD17B3F9F90013071F
:1055C00004089307E00F63CBE70493976900A58372
:1055D0001377F70F9DBD8547B386E74011C76D462A
:1055E00001478147E343D6E61307E4093397E9000F
:1055F0003337E000B3D7D900D98F13F7770019C735
:1056000013F7F70091466303D700910713975700EC
:10561000634C07009A07A583014705BD1307F00FE8
:10562000814725B52E84B5B70547814739BD370772
:10563000800041117D179356750113D87501B3771A
:10564000A70093F6F60F935EF5013376B70026C2F6
:105650004AC01378F80F06C622C41303F00F3E8E1B
:105660003689F684139F3700FD8113153600B38801
:1056700006416302681093C51500638CBE10635425
:10568000100D631008106304051EFD18B307AF402A
:10569000638608029307F00F6388F616ED4763C729
:1056A000172913070002330717413317E500B357D3
:1056B00015013337E000D98FB307FF401397570028
:1056C0006351071A370400047D147D8C2285D52D83
:1056D0006D15B317A400634E251B33052541130434
:1056E000150013070002018F3397E7003337E000FE
:1056F000B3D78700D98F014913F7770019C713F77C
:10570000F70091466303D700910713975700635E34
:105710000714930619001307F00F93FE1400638615
:10572000E6169A07A58393F6F60FA607B240224421
:1057300013D59700DE069397FE01558D92440249DA
:105740005D8D410182806392080A138716001377EA
:10575000E70F631B07146394062263020F2071D5C1
:10576000B307AF401397570063550722B307E541CE
:105770000149AE8451B7E30005F0638ABE0AE354E1
:1057800010FD9307F00F6381F608B70700045D8DE5
:1057900031B7635E1009630108089307F00F638552
:1057A000F606B70700045D8DED4763C0171F1307AA
:1057B0000002330717413317E500B357150133379C
:1057C000E000D98FFA9713975700635C0708050923
:1057D0001307F00F630BE90AB706007E13D7170013
:1057E000FD16858B758FD98F01BF3307D840639520
:1057F0000610630D0F147D176303071A9307F00F4C
:105800006314F810AE84328E630F0E06814E930639
:10581000F00FB707400011BF39C9FD18B307AF003B
:10582000E38308FA9307F00FE390F6F8F1BF63996A
:105830000808138916001377E90F63160712639B94
:10584000061063030F16E30205EEB307AF001397CC
:105850005700014963570700370700FC7D17F98F90
:10586000054913F77700E31C07E813DE37009307B9
:10587000F00FE30BF9F893179E00A5839376F90FC9
:1058800093FE14005DB593FE14009306F00F81475C
:1058900069BD370700FC7D17F98F13F777003309CF
:1058A000A940E31E07E4D1B73304AF409317540077
:1058B00063C3070CE31C04E0814E81468147B5B504
:1058C0003307D840B5C69307F00FE30EF8F2B707D9
:1058D0000004336FFF00ED4763CDE70C9307000230
:1058E000998FB317FF003357EF00B337F0005D8F88
:1058F000B307A7004289C1BD9307F00FE304F8F096
:10590000B7070004336FFF00ED4763C2E708930752
:105910000002998FB317FF003357EF00B337F00041
:10592000D98FB307F5404289AE8449BB854769B337
:10593000630E0F067D17B307AF004289E30507E842
:105940009307F00FE319F8F8328E7DBD328E42894D
:10595000AE8431BFE3090FEAE30805EA45BD0DCD8A
:10596000AE8EB287D9B39307F00FE300F9F2B30715
:10597000AF008583FDB53304E541AE8481BBE31DF3
:105980000FFCE30505E8AE84BDBD854725BD854711
:1059900049BF0149E39707EC814E814779B3B307CB
:1059A000E5414289AE8419BBB28741B3328E428948
:1059B0007DBD054735BF3706800013577501930736
:1059C000F6FF1377F70F9305E007B3F6A700935799
:1059D000F50163FCE5009305D00963FAE50037059E
:1059E00000801345F5FF3E95828001458280930536
:1059F0005009D18E63CDE500130660093307E640F8
:105A000033D7E6003305E040F5F33A85828013078B
:105A1000A7F63397E600FDB7411106C622C426C299
:105A20000DCD9357F54133C4A7001D8CAA84228560
:105A3000492E9307E0093387A74093076009FD804B
:105A400063CCE702A1469377F70F63D5A6006115F3
:105A50003314A4002604258021A0814481470144F9
:105A6000260413559400B2402244DE07FE045D8DE7
:105A7000458D9244410182809307900963DDE700E0
:105A80009307B5019546B317F400898E3354D400BB
:105A9000B337F0005D8C954763D6A7009307B5FF39
:105AA0003314F400B70600FCFD16937774003376C8
:105AB000D40085C39377F4009145638CB700110639
:105AC0009317560063D707009307F009758E338745
:105AD000A7401314660025809377F70F51B7411143
